{
  "_format": "hh-sol-artifact-1",
  "contractName": "CarbonMarketplace",
  "sourceName": "contracts/CarbonMarketplace.sol",
  "abi": [
    {
      "inputs": [
        {
          "internalType": "address",
          "name": "_tokenAddress",
          "type": "address"
        }
      ],
      "stateMutability": "nonpayable",
      "type": "constructor"
    },
    {
      "inputs": [],
      "name": "ReentrancyGuardReentrantCall",
      "type": "error"
    },
    {
      "anonymous": false,
      "inputs": [
        {
          "indexed": true,
          "internalType": "uint256",
          "name": "listingId",
          "type": "uint256"
        },
        {
          "indexed": true,
          "internalType": "address",
          "name": "seller",
          "type": "address"
        },
        {
          "indexed": true,
          "internalType": "uint256",
          "name": "tokenId",
          "type": "uint256"
        },
        {
          "indexed": false,
          "internalType": "uint256",
          "name": "amount",
          "type": "uint256"
        },
        {
          "indexed": false,
          "internalType": "uint256",
          "name": "price",
          "type": "uint256"
        }
      ],
      "name": "Listed",
      "type": "event"
    },
    {
      "anonymous": false,
      "inputs": [
        {
          "indexed": true,
          "internalType": "uint256",
          "name": "listingId",
          "type": "uint256"
        },
        {
          "indexed": true,
          "internalType": "address",
          "name": "buyer",
          "type": "address"
        },
        {
          "indexed": false,
          "internalType": "uint256",
          "name": "amount",
          "type": "uint256"
        }
      ],
      "name": "Sale",
      "type": "event"
    },
    {
      "inputs": [
        {
          "internalType": "uint256",
          "name": "_listingId",
          "type": "uint256"
        },
        {
          "internalType": "uint256",
          "name": "_amountToBuy",
          "type": "uint256"
        }
      ],
      "name": "buyTokens",
      "outputs": [],
      "stateMutability": "payable",
      "type": "function"
    },
    {
      "inputs": [],
      "name": "carbonToken",
      "outputs": [
        {
          "internalType": "contract IERC1155",
          "name": "",
          "type": "address"
        }
      ],
      "stateMutability": "view",
      "type": "function"
    },
    {
      "inputs": [
        {
          "internalType": "uint256",
          "name": "_tokenId",
          "type": "uint256"
        },
        {
          "internalType": "uint256",
          "name": "_amount",
          "type": "uint256"
        },
        {
          "internalType": "uint256",
          "name": "_pricePerToken",
          "type": "uint256"
        }
      ],
      "name": "listTokens",
      "outputs": [],
      "stateMutability": "nonpayable",
      "type": "function"
    },
    {
      "inputs": [
        {
          "internalType": "uint256",
          "name": "",
          "type": "uint256"
        }
      ],
      "name": "listings",
      "outputs": [
        {
          "internalType": "uint256",
          "name": "listingId",
          "type": "uint256"
        },
        {
          "internalType": "address",
          "name": "seller",
          "type": "address"
        },
        {
          "internalType": "uint256",
          "name": "tokenId",
          "type": "uint256"
        },
        {
          "internalType": "uint256",
          "name": "amount",
          "type": "uint256"
        },
        {
          "internalType": "uint256",
          "name": "pricePerToken",
          "type": "uint256"
        },
        {
          "internalType": "bool",
          "name": "active",
          "type": "bool"
        }
      ],
      "stateMutability": "view",
      "type": "function"
    },
    {
      "inputs": [],
      "name": "nextListingId",
      "outputs": [
        {
          "internalType": "uint256",
          "name": "",
          "type": "uint256"
        }
      ],
      "stateMutability": "view",
      "type": "function"
    },
    {
      "inputs": [
        {
          "internalType": "address",
          "name": "",
          "type": "address"
        },
        {
          "internalType": "address",
          "name": "",
          "type": "address"
        },
        {
          "internalType": "uint256[]",
          "name": "",
          "type": "uint256[]"
        },
        {
          "internalType": "uint256[]",
          "name": "",
          "type": "uint256[]"
        },
        {
          "internalType": "bytes",
          "name": "",
          "type": "bytes"
        }
      ],
      "name": "onERC1155BatchReceived",
      "outputs": [
        {
          "internalType": "bytes4",
          "name": "",
          "type": "bytes4"
        }
      ],
      "stateMutability": "nonpayable",
      "type": "function"
    },
    {
      "inputs": [
        {
          "internalType": "address",
          "name": "",
          "type": "address"
        },
        {
          "internalType": "address",
          "name": "",
          "type": "address"
        },
        {
          "internalType": "uint256",
          "name": "",
          "type": "uint256"
        },
        {
          "internalType": "uint256",
          "name": "",
          "type": "uint256"
        },
        {
          "internalType": "bytes",
          "name": "",
          "type": "bytes"
        }
      ],
      "name": "onERC1155Received",
      "outputs": [
        {
          "internalType": "bytes4",
          "name": "",
          "type": "bytes4"
        }
      ],
      "stateMutability": "nonpayable",
      "type": "function"
    },
    {
      "inputs": [
        {
          "internalType": "bytes4",
          "name": "interfaceId",
          "type": "bytes4"
        }
      ],
      "name": "supportsInterface",
      "outputs": [
        {
          "internalType": "bool",
          "name": "",
          "type": "bool"
        }
      ],
      "stateMutability": "view",
      "type": "function"
    }
  ],
  "bytecode": "0x608060405260016002553480156200001657600080fd5b50604051620015033803806200150383398181016040528101906200003c9190620000f6565b600160008190555080600160006101000a81548173ffffffffffffffffffffffffffffffffffffffff021916908373ffffffffffffffffffffffffffffffffffffffff1602179055505062000128565b600080fd5b600073ffffffffffffffffffffffffffffffffffffffff82169050919050565b6000620000be8262000091565b9050919050565b620000d081620000b1565b8114620000dc57600080fd5b50565b600081519050620000f081620000c5565b92915050565b6000602082840312156200010f576200010e6200008c565b5b60006200011f84828501620000df565b91505092915050565b6113cb80620001386000396000f3fe60806040526004361061007b5760003560e01c8063bc197c811161004e578063bc197c811461012f578063dd98ebb61461016c578063de74e57b14610195578063f23a6e61146101d75761007b565b806301ffc9a7146100805780637975ce28146100bd57806382a71ef2146100d9578063aaccf1ec14610104575b600080fd5b34801561008c57600080fd5b506100a760048036038101906100a291906109c6565b610214565b6040516100b49190610a0e565b60405180910390f35b6100d760048036038101906100d29190610a5f565b61028e565b005b3480156100e557600080fd5b506100ee61059b565b6040516100fb9190610b1e565b60405180910390f35b34801561011057600080fd5b506101196105c1565b6040516101269190610b48565b60405180910390f35b34801561013b57600080fd5b5061015660048036038101906101519190610daf565b6105c7565b6040516101639190610e8d565b60405180910390f35b34801561017857600080fd5b50610193600480360381019061018e9190610ea8565b6105dc565b005b3480156101a157600080fd5b506101bc60048036038101906101b79190610efb565b610822565b6040516101ce96959493929190610f37565b60405180910390f35b3480156101e357600080fd5b506101fe60048036038101906101f99190610f98565b61088b565b60405161020b9190610e8d565b60405180910390f35b60007f4e2312e0000000000000000000000000000000000000000000000000000000007bffffffffffffffffffffffffffffffffffffffffffffffffffffffff1916827bffffffffffffffffffffffffffffffffffffffffffffffffffffffff191614806102875750610286826108a0565b5b9050919050565b61029661090a565b60006003600084815260200190815260200160002090508060050160009054906101000a900460ff166102fe576040517f08c379a00000000000000000000000000000000000000000000000000000000081526004016102f59061108c565b60405180910390fd5b8181600301541015610345576040517f08c379a000000000000000000000000000000000000000000000000000000000815260040161033c906110f8565b60405180910390fd5b60008282600401546103579190611147565b90508034101561039c576040517f08c379a0000000000000000000000000000000000000000000000000000000008152600401610393906111d5565b60405180910390fd5b828260030160008282546103b091906111f5565b9250508190555060008260030154036103e15760008260050160006101000a81548160ff0219169083151502179055505b600160009054906101000a900473ffffffffffffffffffffffffffffffffffffffff1673ffffffffffffffffffffffffffffffffffffffff1663f242432a30338560020154876040518563ffffffff1660e01b81526004016104469493929190611260565b600060405180830381600087803b15801561046057600080fd5b505af1158015610474573d6000803e3d6000fd5b505050508160010160009054906101000a900473ffffffffffffffffffffffffffffffffffffffff1673ffffffffffffffffffffffffffffffffffffffff166108fc829081150290604051600060405180830381858888f193505050501580156104e2573d6000803e3d6000fd5b508034111561053e573373ffffffffffffffffffffffffffffffffffffffff166108fc823461051191906111f5565b9081150290604051600060405180830381858888f1935050505015801561053c573d6000803e3d6000fd5b505b3373ffffffffffffffffffffffffffffffffffffffff16847fc0e076a004e59b819c1099b4799386d7feaa928662e5f3f95af4db1a1502520d856040516105859190610b48565b60405180910390a35050610597610950565b5050565b600160009054906101000a900473ffffffffffffffffffffffffffffffffffffffff1681565b60025481565b600063bc197c8160e01b905095945050505050565b6105e461090a565b60008211610627576040517f08c379a000000000000000000000000000000000000000000000000000000000815260040161061e90611304565b60405180910390fd5b600160009054906101000a900473ffffffffffffffffffffffffffffffffffffffff1673ffffffffffffffffffffffffffffffffffffffff1663f242432a333086866040518563ffffffff1660e01b81526004016106889493929190611260565b600060405180830381600087803b1580156106a257600080fd5b505af11580156106b6573d6000803e3d6000fd5b505050506040518060c0016040528060025481526020013373ffffffffffffffffffffffffffffffffffffffff168152602001848152602001838152602001828152602001600115158152506003600060025481526020019081526020016000206000820151816000015560208201518160010160006101000a81548173ffffffffffffffffffffffffffffffffffffffff021916908373ffffffffffffffffffffffffffffffffffffffff16021790555060408201518160020155606082015181600301556080820151816004015560a08201518160050160006101000a81548160ff021916908315150217905550905050823373ffffffffffffffffffffffffffffffffffffffff166002547fd0e2632082726e989c9a9cac6d495b05080e0d6836ee21e07618b32d5719a40485856040516107f5929190611324565b60405180910390a4600260008154809291906108109061134d565b919050555061081d610950565b505050565b60036020528060005260406000206000915090508060000154908060010160009054906101000a900473ffffffffffffffffffffffffffffffffffffffff16908060020154908060030154908060040154908060050160009054906101000a900460ff16905086565b600063f23a6e6160e01b905095945050505050565b60007f01ffc9a7000000000000000000000000000000000000000000000000000000007bffffffffffffffffffffffffffffffffffffffffffffffffffffffff1916827bffffffffffffffffffffffffffffffffffffffffffffffffffffffff1916149050919050565b600260005403610946576040517f3ee5aeb500000000000000000000000000000000000000000000000000000000815260040160405180910390fd5b6002600081905550565b6001600081905550565b6000604051905090565b600080fd5b600080fd5b60007fffffffff0000000000000000000000000000000000000000000000000000000082169050919050565b6109a38161096e565b81146109ae57600080fd5b50565b6000813590506109c08161099a565b92915050565b6000602082840312156109dc576109db610964565b5b60006109ea848285016109b1565b91505092915050565b60008115159050919050565b610a08816109f3565b82525050565b6000602082019050610a2360008301846109ff565b92915050565b6000819050919050565b610a3c81610a29565b8114610a4757600080fd5b50565b600081359050610a5981610a33565b92915050565b60008060408385031215610a7657610a75610964565b5b6000610a8485828601610a4a565b9250506020610a9585828601610a4a565b9150509250929050565b600073ffffffffffffffffffffffffffffffffffffffff82169050919050565b6000819050919050565b6000610ae4610adf610ada84610a9f565b610abf565b610a9f565b9050919050565b6000610af682610ac9565b9050919050565b6000610b0882610aeb565b9050919050565b610b1881610afd565b82525050565b6000602082019050610b336000830184610b0f565b92915050565b610b4281610a29565b82525050565b6000602082019050610b5d6000830184610b39565b92915050565b6000610b6e82610a9f565b9050919050565b610b7e81610b63565b8114610b8957600080fd5b50565b600081359050610b9b81610b75565b92915050565b600080fd5b6000601f19601f8301169050919050565b7f4e487b7100000000000000000000000000000000000000000000000000000000600052604160045260246000fd5b610bef82610ba6565b810181811067ffffffffffffffff82111715610c0e57610c0d610bb7565b5b80604052505050565b6000610c2161095a565b9050610c2d8282610be6565b919050565b600067ffffffffffffffff821115610c4d57610c4c610bb7565b5b602082029050602081019050919050565b600080fd5b6000610c76610c7184610c32565b610c17565b90508083825260208201905060208402830185811115610c9957610c98610c5e565b5b835b81811015610cc25780610cae8882610a4a565b845260208401935050602081019050610c9b565b5050509392505050565b600082601f830112610ce157610ce0610ba1565b5b8135610cf1848260208601610c63565b91505092915050565b600080fd5b600067ffffffffffffffff821115610d1a57610d19610bb7565b5b610d2382610ba6565b9050602081019050919050565b82818337600083830152505050565b6000610d52610d4d84610cff565b610c17565b905082815260208101848484011115610d6e57610d6d610cfa565b5b610d79848285610d30565b509392505050565b600082601f830112610d9657610d95610ba1565b5b8135610da6848260208601610d3f565b91505092915050565b600080600080600060a08688031215610dcb57610dca610964565b5b6000610dd988828901610b8c565b9550506020610dea88828901610b8c565b945050604086013567ffffffffffffffff811115610e0b57610e0a610969565b5b610e1788828901610ccc565b935050606086013567ffffffffffffffff811115610e3857610e37610969565b5b610e4488828901610ccc565b925050608086013567ffffffffffffffff811115610e6557610e64610969565b5b610e7188828901610d81565b9150509295509295909350565b610e878161096e565b82525050565b6000602082019050610ea26000830184610e7e565b92915050565b600080600060608486031215610ec157610ec0610964565b5b6000610ecf86828701610a4a565b9350506020610ee086828701610a4a565b9250506040610ef186828701610a4a565b9150509250925092565b600060208284031215610f1157610f10610964565b5b6000610f1f84828501610a4a565b91505092915050565b610f3181610b63565b82525050565b600060c082019050610f4c6000830189610b39565b610f596020830188610f28565b610f666040830187610b39565b610f736060830186610b39565b610f806080830185610b39565b610f8d60a08301846109ff565b979650505050505050565b600080600080600060a08688031215610fb457610fb3610964565b5b6000610fc288828901610b8c565b9550506020610fd388828901610b8c565b9450506040610fe488828901610a4a565b9350506060610ff588828901610a4a565b925050608086013567ffffffffffffffff81111561101657611015610969565b5b61102288828901610d81565b9150509295509295909350565b600082825260208201905092915050565b7f4c697374696e67206e6f74206163746976650000000000000000000000000000600082015250565b600061107660128361102f565b915061108182611040565b602082019050919050565b600060208201905081810360008301526110a581611069565b9050919050565b7f4e6f7420656e6f75676820746f6b656e73000000000000000000000000000000600082015250565b60006110e260118361102f565b91506110ed826110ac565b602082019050919050565b60006020820190508181036000830152611111816110d5565b9050919050565b7f4e487b7100000000000000000000000000000000000000000000000000000000600052601160045260246000fd5b600061115282610a29565b915061115d83610a29565b925082820261116b81610a29565b9150828204841483151761118257611181611118565b5b5092915050565b7f496e73756666696369656e742066756e64730000000000000000000000000000600082015250565b60006111bf60128361102f565b91506111ca82611189565b602082019050919050565b600060208201905081810360008301526111ee816111b2565b9050919050565b600061120082610a29565b915061120b83610a29565b925082820390508181111561122357611222611118565b5b92915050565b600082825260208201905092915050565b50565b600061124a600083611229565b91506112558261123a565b600082019050919050565b600060a0820190506112756000830187610f28565b6112826020830186610f28565b61128f6040830185610b39565b61129c6060830184610b39565b81810360808301526112ad8161123d565b905095945050505050565b7f416d6f756e74206d757374206265203e20300000000000000000000000000000600082015250565b60006112ee60128361102f565b91506112f9826112b8565b602082019050919050565b6000602082019050818103600083015261131d816112e1565b9050919050565b60006040820190506113396000830185610b39565b6113466020830184610b39565b9392505050565b600061135882610a29565b91507fffffffffffffffffffffffffffffffffffffffffffffffffffffffffffffffff820361138a57611389611118565b5b60018201905091905056fea26469706673582212204f88eaf410f1362d57174c926ef8af62c6d11af125874b5ea0daf97c1dc893d864736f6c63430008140033",
  "linkReferences": {},
  "deployedLinkReferences": {}
}