{
  "_format": "hh-sol-artifact-1",
  "contractName": "CarbonNFT",
  "sourceName": "contracts/CarbonNFT.sol",
  "abi": [
    {
      "inputs": [],
      "stateMutability": "nonpayable",
      "type": "constructor"
    },
    {
      "inputs": [],
      "name": "AccessControlBadConfirmation",
      "type": "error"
    },
    {
      "inputs": [
        {
          "internalType": "address",
          "name": "account",
          "type": "address"
        },
        {
          "internalType": "bytes32",
          "name": "neededRole",
          "type": "bytes32"
        }
      ],
      "name": "AccessControlUnauthorizedAccount",
      "type": "error"
    },
    {
      "inputs": [
        {
          "internalType": "address",
          "name": "sender",
          "type": "address"
        },
        {
          "internalType": "uint256",
          "name": "tokenId",
          "type": "uint256"
        },
        {
          "internalType": "address",
          "name": "owner",
          "type": "address"
        }
      ],
      "name": "ERC721IncorrectOwner",
      "type": "error"
    },
    {
      "inputs": [
        {
          "internalType": "address",
          "name": "operator",
          "type": "address"
        },
        {
          "internalType": "uint256",
          "name": "tokenId",
          "type": "uint256"
        }
      ],
      "name": "ERC721InsufficientApproval",
      "type": "error"
    },
    {
      "inputs": [
        {
          "internalType": "address",
          "name": "approver",
          "type": "address"
        }
      ],
      "name": "ERC721InvalidApprover",
      "type": "error"
    },
    {
      "inputs": [
        {
          "internalType": "address",
          "name": "operator",
          "type": "address"
        }
      ],
      "name": "ERC721InvalidOperator",
      "type": "error"
    },
    {
      "inputs": [
        {
          "internalType": "address",
          "name": "owner",
          "type": "address"
        }
      ],
      "name": "ERC721InvalidOwner",
      "type": "error"
    },
    {
      "inputs": [
        {
          "internalType": "address",
          "name": "receiver",
          "type": "address"
        }
      ],
      "name": "ERC721InvalidReceiver",
      "type": "error"
    },
    {
      "inputs": [
        {
          "internalType": "address",
          "name": "sender",
          "type": "address"
        }
      ],
      "name": "ERC721InvalidSender",
      "type": "error"
    },
    {
      "inputs": [
        {
          "internalType": "uint256",
          "name": "tokenId",
          "type": "uint256"
        }
      ],
      "name": "ERC721NonexistentToken",
      "type": "error"
    },
    {
      "anonymous": false,
      "inputs": [
        {
          "indexed": true,
          "internalType": "address",
          "name": "owner",
          "type": "address"
        },
        {
          "indexed": true,
          "internalType": "address",
          "name": "approved",
          "type": "address"
        },
        {
          "indexed": true,
          "internalType": "uint256",
          "name": "tokenId",
          "type": "uint256"
        }
      ],
      "name": "Approval",
      "type": "event"
    },
    {
      "anonymous": false,
      "inputs": [
        {
          "indexed": true,
          "internalType": "address",
          "name": "owner",
          "type": "address"
        },
        {
          "indexed": true,
          "internalType": "address",
          "name": "operator",
          "type": "address"
        },
        {
          "indexed": false,
          "internalType": "bool",
          "name": "approved",
          "type": "bool"
        }
      ],
      "name": "ApprovalForAll",
      "type": "event"
    },
    {
      "anonymous": false,
      "inputs": [
        {
          "indexed": false,
          "internalType": "uint256",
          "name": "_fromTokenId",
          "type": "uint256"
        },
        {
          "indexed": false,
          "internalType": "uint256",
          "name": "_toTokenId",
          "type": "uint256"
        }
      ],
      "name": "BatchMetadataUpdate",
      "type": "event"
    },
    {
      "anonymous": false,
      "inputs": [
        {
          "indexed": false,
          "internalType": "uint256",
          "name": "_tokenId",
          "type": "uint256"
        }
      ],
      "name": "MetadataUpdate",
      "type": "event"
    },
    {
      "anonymous": false,
      "inputs": [
        {
          "indexed": true,
          "internalType": "bytes32",
          "name": "role",
          "type": "bytes32"
        },
        {
          "indexed": true,
          "internalType": "bytes32",
          "name": "previousAdminRole",
          "type": "bytes32"
        },
        {
          "indexed": true,
          "internalType": "bytes32",
          "name": "newAdminRole",
          "type": "bytes32"
        }
      ],
      "name": "RoleAdminChanged",
      "type": "event"
    },
    {
      "anonymous": false,
      "inputs": [
        {
          "indexed": true,
          "internalType": "bytes32",
          "name": "role",
          "type": "bytes32"
        },
        {
          "indexed": true,
          "internalType": "address",
          "name": "account",
          "type": "address"
        },
        {
          "indexed": true,
          "internalType": "address",
          "name": "sender",
          "type": "address"
        }
      ],
      "name": "RoleGranted",
      "type": "event"
    },
    {
      "anonymous": false,
      "inputs": [
        {
          "indexed": true,
          "internalType": "bytes32",
          "name": "role",
          "type": "bytes32"
        },
        {
          "indexed": true,
          "internalType": "address",
          "name": "account",
          "type": "address"
        },
        {
          "indexed": true,
          "internalType": "address",
          "name": "sender",
          "type": "address"
        }
      ],
      "name": "RoleRevoked",
      "type": "event"
    },
    {
      "anonymous": false,
      "inputs": [
        {
          "indexed": true,
          "internalType": "address",
          "name": "from",
          "type": "address"
        },
        {
          "indexed": true,
          "internalType": "address",
          "name": "to",
          "type": "address"
        },
        {
          "indexed": true,
          "internalType": "uint256",
          "name": "tokenId",
          "type": "uint256"
        }
      ],
      "name": "Transfer",
      "type": "event"
    },
    {
      "inputs": [],
      "name": "DEFAULT_ADMIN_ROLE",
      "outputs": [
        {
          "internalType": "bytes32",
          "name": "",
          "type": "bytes32"
        }
      ],
      "stateMutability": "view",
      "type": "function"
    },
    {
      "inputs": [],
      "name": "MINTER_ROLE",
      "outputs": [
        {
          "internalType": "bytes32",
          "name": "",
          "type": "bytes32"
        }
      ],
      "stateMutability": "view",
      "type": "function"
    },
    {
      "inputs": [
        {
          "internalType": "address",
          "name": "to",
          "type": "address"
        },
        {
          "internalType": "uint256",
          "name": "tokenId",
          "type": "uint256"
        }
      ],
      "name": "approve",
      "outputs": [],
      "stateMutability": "nonpayable",
      "type": "function"
    },
    {
      "inputs": [
        {
          "internalType": "address",
          "name": "owner",
          "type": "address"
        }
      ],
      "name": "balanceOf",
      "outputs": [
        {
          "internalType": "uint256",
          "name": "",
          "type": "uint256"
        }
      ],
      "stateMutability": "view",
      "type": "function"
    },
    {
      "inputs": [
        {
          "internalType": "uint256",
          "name": "tokenId",
          "type": "uint256"
        }
      ],
      "name": "getApproved",
      "outputs": [
        {
          "internalType": "address",
          "name": "",
          "type": "address"
        }
      ],
      "stateMutability": "view",
      "type": "function"
    },
    {
      "inputs": [
        {
          "internalType": "bytes32",
          "name": "role",
          "type": "bytes32"
        }
      ],
      "name": "getRoleAdmin",
      "outputs": [
        {
          "internalType": "bytes32",
          "name": "",
          "type": "bytes32"
        }
      ],
      "stateMutability": "view",
      "type": "function"
    },
    {
      "inputs": [
        {
          "internalType": "bytes32",
          "name": "role",
          "type": "bytes32"
        },
        {
          "internalType": "address",
          "name": "account",
          "type": "address"
        }
      ],
      "name": "grantRole",
      "outputs": [],
      "stateMutability": "nonpayable",
      "type": "function"
    },
    {
      "inputs": [
        {
          "internalType": "bytes32",
          "name": "role",
          "type": "bytes32"
        },
        {
          "internalType": "address",
          "name": "account",
          "type": "address"
        }
      ],
      "name": "hasRole",
      "outputs": [
        {
          "internalType": "bool",
          "name": "",
          "type": "bool"
        }
      ],
      "stateMutability": "view",
      "type": "function"
    },
    {
      "inputs": [
        {
          "internalType": "address",
          "name": "owner",
          "type": "address"
        },
        {
          "internalType": "address",
          "name": "operator",
          "type": "address"
        }
      ],
      "name": "isApprovedForAll",
      "outputs": [
        {
          "internalType": "bool",
          "name": "",
          "type": "bool"
        }
      ],
      "stateMutability": "view",
      "type": "function"
    },
    {
      "inputs": [],
      "name": "name",
      "outputs": [
        {
          "internalType": "string",
          "name": "",
          "type": "string"
        }
      ],
      "stateMutability": "view",
      "type": "function"
    },
    {
      "inputs": [
        {
          "internalType": "uint256",
          "name": "tokenId",
          "type": "uint256"
        }
      ],
      "name": "ownerOf",
      "outputs": [
        {
          "internalType": "address",
          "name": "",
          "type": "address"
        }
      ],
      "stateMutability": "view",
      "type": "function"
    },
    {
      "inputs": [
        {
          "internalType": "bytes32",
          "name": "role",
          "type": "bytes32"
        },
        {
          "internalType": "address",
          "name": "callerConfirmation",
          "type": "address"
        }
      ],
      "name": "renounceRole",
      "outputs": [],
      "stateMutability": "nonpayable",
      "type": "function"
    },
    {
      "inputs": [
        {
          "internalType": "bytes32",
          "name": "role",
          "type": "bytes32"
        },
        {
          "internalType": "address",
          "name": "account",
          "type": "address"
        }
      ],
      "name": "revokeRole",
      "outputs": [],
      "stateMutability": "nonpayable",
      "type": "function"
    },
    {
      "inputs": [
        {
          "internalType": "address",
          "name": "to",
          "type": "address"
        },
        {
          "internalType": "string",
          "name": "uri",
          "type": "string"
        }
      ],
      "name": "safeMint",
      "outputs": [
        {
          "internalType": "uint256",
          "name": "",
          "type": "uint256"
        }
      ],
      "stateMutability": "nonpayable",
      "type": "function"
    },
    {
      "inputs": [
        {
          "internalType": "address",
          "name": "from",
          "type": "address"
        },
        {
          "internalType": "address",
          "name": "to",
          "type": "address"
        },
        {
          "internalType": "uint256",
          "name": "tokenId",
          "type": "uint256"
        }
      ],
      "name": "safeTransferFrom",
      "outputs": [],
      "stateMutability": "nonpayable",
      "type": "function"
    },
    {
      "inputs": [
        {
          "internalType": "address",
          "name": "from",
          "type": "address"
        },
        {
          "internalType": "address",
          "name": "to",
          "type": "address"
        },
        {
          "internalType": "uint256",
          "name": "tokenId",
          "type": "uint256"
        },
        {
          "internalType": "bytes",
          "name": "data",
          "type": "bytes"
        }
      ],
      "name": "safeTransferFrom",
      "outputs": [],
      "stateMutability": "nonpayable",
      "type": "function"
    },
    {
      "inputs": [
        {
          "internalType": "address",
          "name": "operator",
          "type": "address"
        },
        {
          "internalType": "bool",
          "name": "approved",
          "type": "bool"
        }
      ],
      "name": "setApprovalForAll",
      "outputs": [],
      "stateMutability": "nonpayable",
      "type": "function"
    },
    {
      "inputs": [
        {
          "internalType": "bytes4",
          "name": "interfaceId",
          "type": "bytes4"
        }
      ],
      "name": "supportsInterface",
      "outputs": [
        {
          "internalType": "bool",
          "name": "",
          "type": "bool"
        }
      ],
      "stateMutability": "view",
      "type": "function"
    },
    {
      "inputs": [],
      "name": "symbol",
      "outputs": [
        {
          "internalType": "string",
          "name": "",
          "type": "string"
        }
      ],
      "stateMutability": "view",
      "type": "function"
    },
    {
      "inputs": [
        {
          "internalType": "uint256",
          "name": "tokenId",
          "type": "uint256"
        }
      ],
      "name": "tokenURI",
      "outputs": [
        {
          "internalType": "string",
          "name": "",
          "type": "string"
        }
      ],
      "stateMutability": "view",
      "type": "function"
    },
    {
      "inputs": [
        {
          "internalType": "address",
          "name": "from",
          "type": "address"
        },
        {
          "internalType": "address",
          "name": "to",
          "type": "address"
        },
        {
          "internalType": "uint256",
          "name": "tokenId",
          "type": "uint256"
        }
      ],
      "name": "transferFrom",
      "outputs": [],
      "stateMutability": "nonpayable",
      "type": "function"
    }
  ],
  "bytecode": "0x60806040523480156200001157600080fd5b506040518060400160405280601081526020017f436172626f6e50726f6a6563744e4654000000000000000000000000000000008152506040518060400160405280600381526020017f43504e000000000000000000000000000000000000000000000000000000000081525081600090816200008f9190620004e4565b508060019081620000a19190620004e4565b505050620000b96000801b33620000f360201b60201c565b50620000ec7f9f2df0fed2c77648de5860a4cc508cd0818c85b8b8a1ab4ceeef8d981c8956a633620000f360201b60201c565b50620005cb565b6000620001078383620001f760201b60201c565b620001ec5760016007600085815260200190815260200160002060000160008473ffffffffffffffffffffffffffffffffffffffff1673ffffffffffffffffffffffffffffffffffffffff16815260200190815260200160002060006101000a81548160ff021916908315150217905550620001886200026260201b60201c565b73ffffffffffffffffffffffffffffffffffffffff168273ffffffffffffffffffffffffffffffffffffffff16847f2f8788117e7eff1d82e926ec794901d17c78024a50270940304540a733656f0d60405160405180910390a460019050620001f1565b600090505b92915050565b60006007600084815260200190815260200160002060000160008373ffffffffffffffffffffffffffffffffffffffff1673ffffffffffffffffffffffffffffffffffffffff16815260200190815260200160002060009054906101000a900460ff16905092915050565b600033905090565b600081519050919050565b7f4e487b7100000000000000000000000000000000000000000000000000000000600052604160045260246000fd5b7f4e487b7100000000000000000000000000000000000000000000000000000000600052602260045260246000fd5b60006002820490506001821680620002ec57607f821691505b602082108103620003025762000301620002a4565b5b50919050565b60008190508160005260206000209050919050565b60006020601f8301049050919050565b600082821b905092915050565b6000600883026200036c7fffffffffffffffffffffffffffffffffffffffffffffffffffffffffffffffff826200032d565b6200037886836200032d565b95508019841693508086168417925050509392505050565b6000819050919050565b6000819050919050565b6000620003c5620003bf620003b98462000390565b6200039a565b62000390565b9050919050565b6000819050919050565b620003e183620003a4565b620003f9620003f082620003cc565b8484546200033a565b825550505050565b600090565b6200041062000401565b6200041d818484620003d6565b505050565b5b8181101562000445576200043960008262000406565b60018101905062000423565b5050565b601f82111562000494576200045e8162000308565b62000469846200031d565b8101602085101562000479578190505b6200049162000488856200031d565b83018262000422565b50505b505050565b600082821c905092915050565b6000620004b96000198460080262000499565b1980831691505092915050565b6000620004d48383620004a6565b9150826002028217905092915050565b620004ef826200026a565b67ffffffffffffffff8111156200050b576200050a62000275565b5b620005178254620002d3565b6200052482828562000449565b600060209050601f8311600181146200055c576000841562000547578287015190505b620005538582620004c6565b865550620005c3565b601f1984166200056c8662000308565b60005b8281101562000596578489015182556001820191506020850194506020810190506200056f565b86831015620005b65784890151620005b2601f891682620004a6565b8355505b6001600288020188555050505b505050505050565b612aaa80620005db6000396000f3fe608060405234801561001057600080fd5b50600436106101375760003560e01c806370a08231116100b8578063b88d4fde1161007c578063b88d4fde1461035e578063c87b56dd1461037a578063d204c45e146103aa578063d5391393146103da578063d547741f146103f8578063e985e9c51461041457610137565b806370a08231146102a657806391d14854146102d657806395d89b4114610306578063a217fddf14610324578063a22cb4651461034257610137565b8063248a9ca3116100ff578063248a9ca3146101f25780632f2ff15d1461022257806336568abe1461023e57806342842e0e1461025a5780636352211e1461027657610137565b806301ffc9a71461013c57806306fdde031461016c578063081812fc1461018a578063095ea7b3146101ba57806323b872dd146101d6575b600080fd5b61015660048036038101906101519190611e0c565b610444565b6040516101639190611e54565b60405180910390f35b610174610456565b6040516101819190611eff565b60405180910390f35b6101a4600480360381019061019f9190611f57565b6104e8565b6040516101b19190611fc5565b60405180910390f35b6101d460048036038101906101cf919061200c565b610504565b005b6101f060048036038101906101eb919061204c565b61051a565b005b61020c600480360381019061020791906120d5565b61061c565b6040516102199190612111565b60405180910390f35b61023c6004803603810190610237919061212c565b61063c565b005b6102586004803603810190610253919061212c565b61065e565b005b610274600480360381019061026f919061204c565b6106d9565b005b610290600480360381019061028b9190611f57565b6106f9565b60405161029d9190611fc5565b60405180910390f35b6102c060048036038101906102bb919061216c565b61070b565b6040516102cd91906121a8565b60405180910390f35b6102f060048036038101906102eb919061212c565b6107c5565b6040516102fd9190611e54565b60405180910390f35b61030e610830565b60405161031b9190611eff565b60405180910390f35b61032c6108c2565b6040516103399190612111565b60405180910390f35b61035c600480360381019061035791906121ef565b6108c9565b005b61037860048036038101906103739190612364565b6108df565b005b610394600480360381019061038f9190611f57565b610904565b6040516103a19190611eff565b60405180910390f35b6103c460048036038101906103bf9190612488565b610a17565b6040516103d191906121a8565b60405180910390f35b6103e2610a7d565b6040516103ef9190612111565b60405180910390f35b610412600480360381019061040d919061212c565b610aa1565b005b61042e600480360381019061042991906124e4565b610ac3565b60405161043b9190611e54565b60405180910390f35b600061044f82610b57565b9050919050565b60606000805461046590612553565b80601f016020809104026020016040519081016040528092919081815260200182805461049190612553565b80156104de5780601f106104b3576101008083540402835291602001916104de565b820191906000526020600020905b8154815290600101906020018083116104c157829003601f168201915b5050505050905090565b60006104f382610bd1565b506104fd82610c59565b9050919050565b6105168282610511610c96565b610c9e565b5050565b600073ffffffffffffffffffffffffffffffffffffffff168273ffffffffffffffffffffffffffffffffffffffff160361058c5760006040517f64a0ae920000000000000000000000000000000000000000000000000000000081526004016105839190611fc5565b60405180910390fd5b60006105a0838361059b610c96565b610cb0565b90508373ffffffffffffffffffffffffffffffffffffffff168173ffffffffffffffffffffffffffffffffffffffff1614610616578382826040517f64283d7b00000000000000000000000000000000000000000000000000000000815260040161060d93929190612584565b60405180910390fd5b50505050565b600060076000838152602001908152602001600020600101549050919050565b6106458261061c565b61064e81610eca565b6106588383610ede565b50505050565b610666610c96565b73ffffffffffffffffffffffffffffffffffffffff168173ffffffffffffffffffffffffffffffffffffffff16146106ca576040517f6697b23200000000000000000000000000000000000000000000000000000000815260040160405180910390fd5b6106d48282610fd0565b505050565b6106f4838383604051806020016040528060008152506108df565b505050565b600061070482610bd1565b9050919050565b60008073ffffffffffffffffffffffffffffffffffffffff168273ffffffffffffffffffffffffffffffffffffffff160361077e5760006040517f89c62b640000000000000000000000000000000000000000000000000000000081526004016107759190611fc5565b60405180910390fd5b600360008373ffffffffffffffffffffffffffffffffffffffff1673ffffffffffffffffffffffffffffffffffffffff168152602001908152602001600020549050919050565b60006007600084815260200190815260200160002060000160008373ffffffffffffffffffffffffffffffffffffffff1673ffffffffffffffffffffffffffffffffffffffff16815260200190815260200160002060009054906101000a900460ff16905092915050565b60606001805461083f90612553565b80601f016020809104026020016040519081016040528092919081815260200182805461086b90612553565b80156108b85780601f1061088d576101008083540402835291602001916108b8565b820191906000526020600020905b81548152906001019060200180831161089b57829003601f168201915b5050505050905090565b6000801b81565b6108db6108d4610c96565b83836110c3565b5050565b6108ea84848461051a565b6108fe6108f5610c96565b85858585611232565b50505050565b606061090f82610bd1565b50600060066000848152602001908152602001600020805461093090612553565b80601f016020809104026020016040519081016040528092919081815260200182805461095c90612553565b80156109a95780601f1061097e576101008083540402835291602001916109a9565b820191906000526020600020905b81548152906001019060200180831161098c57829003601f168201915b5050505050905060006109ba6113e3565b905060008151036109cf578192505050610a12565b600082511115610a045780826040516020016109ec9291906125f7565b60405160208183030381529060405292505050610a12565b610a0d846113fa565b925050505b919050565b60007f9f2df0fed2c77648de5860a4cc508cd0818c85b8b8a1ab4ceeef8d981c8956a6610a4381610eca565b600060086000815480929190610a589061264a565b919050559050610a688582611463565b610a728185611481565b809250505092915050565b7f9f2df0fed2c77648de5860a4cc508cd0818c85b8b8a1ab4ceeef8d981c8956a681565b610aaa8261061c565b610ab381610eca565b610abd8383610fd0565b50505050565b6000600560008473ffffffffffffffffffffffffffffffffffffffff1673ffffffffffffffffffffffffffffffffffffffff16815260200190815260200160002060008373ffffffffffffffffffffffffffffffffffffffff1673ffffffffffffffffffffffffffffffffffffffff16815260200190815260200160002060009054906101000a900460ff16905092915050565b60007f7965db0b000000000000000000000000000000000000000000000000000000007bffffffffffffffffffffffffffffffffffffffffffffffffffffffff1916827bffffffffffffffffffffffffffffffffffffffffffffffffffffffff19161480610bca5750610bc9826114dd565b5b9050919050565b600080610bdd8361153e565b9050600073ffffffffffffffffffffffffffffffffffffffff168173ffffffffffffffffffffffffffffffffffffffff1603610c5057826040517f7e273289000000000000000000000000000000000000000000000000000000008152600401610c4791906121a8565b60405180910390fd5b80915050919050565b60006004600083815260200190815260200160002060009054906101000a900473ffffffffffffffffffffffffffffffffffffffff169050919050565b600033905090565b610cab838383600161157b565b505050565b600080610cbc8461153e565b9050600073ffffffffffffffffffffffffffffffffffffffff168373ffffffffffffffffffffffffffffffffffffffff1614610cfe57610cfd818486611740565b5b600073ffffffffffffffffffffffffffffffffffffffff168173ffffffffffffffffffffffffffffffffffffffff1614610d8f57610d4060008560008061157b565b6001600360008373ffffffffffffffffffffffffffffffffffffffff1673ffffffffffffffffffffffffffffffffffffffff168152602001908152602001600020600082825403925050819055505b600073ffffffffffffffffffffffffffffffffffffffff168573ffffffffffffffffffffffffffffffffffffffff1614610e12576001600360008773ffffffffffffffffffffffffffffffffffffffff1673ffffffffffffffffffffffffffffffffffffffff168152602001908152602001600020600082825401925050819055505b846002600086815260200190815260200160002060006101000a81548173ffffffffffffffffffffffffffffffffffffffff021916908373ffffffffffffffffffffffffffffffffffffffff160217905550838573ffffffffffffffffffffffffffffffffffffffff168273ffffffffffffffffffffffffffffffffffffffff167fddf252ad1be2c89b69c2b068fc378daa952ba7f163c4a11628f55a4df523b3ef60405160405180910390a4809150509392505050565b610edb81610ed6610c96565b611804565b50565b6000610eea83836107c5565b610fc55760016007600085815260200190815260200160002060000160008473ffffffffffffffffffffffffffffffffffffffff1673ffffffffffffffffffffffffffffffffffffffff16815260200190815260200160002060006101000a81548160ff021916908315150217905550610f62610c96565b73ffffffffffffffffffffffffffffffffffffffff168273ffffffffffffffffffffffffffffffffffffffff16847f2f8788117e7eff1d82e926ec794901d17c78024a50270940304540a733656f0d60405160405180910390a460019050610fca565b600090505b92915050565b6000610fdc83836107c5565b156110b85760006007600085815260200190815260200160002060000160008473ffffffffffffffffffffffffffffffffffffffff1673ffffffffffffffffffffffffffffffffffffffff16815260200190815260200160002060006101000a81548160ff021916908315150217905550611055610c96565b73ffffffffffffffffffffffffffffffffffffffff168273ffffffffffffffffffffffffffffffffffffffff16847ff6391f5c32d9c69d2a47ea670b442974b53935d1edc7fd64eb21e047a839171b60405160405180910390a4600190506110bd565b600090505b92915050565b600073ffffffffffffffffffffffffffffffffffffffff168273ffffffffffffffffffffffffffffffffffffffff160361113457816040517f5b08ba1800000000000000000000000000000000000000000000000000000000815260040161112b9190611fc5565b60405180910390fd5b80600560008573ffffffffffffffffffffffffffffffffffffffff1673ffffffffffffffffffffffffffffffffffffffff16815260200190815260200160002060008473ffffffffffffffffffffffffffffffffffffffff1673ffffffffffffffffffffffffffffffffffffffff16815260200190815260200160002060006101000a81548160ff0219169083151502179055508173ffffffffffffffffffffffffffffffffffffffff168373ffffffffffffffffffffffffffffffffffffffff167f17307eab39ab6107e8899845ad3d59bd9653f200f220920489ca2b5937696c31836040516112259190611e54565b60405180910390a3505050565b60008373ffffffffffffffffffffffffffffffffffffffff163b11156113dc578273ffffffffffffffffffffffffffffffffffffffff1663150b7a02868685856040518563ffffffff1660e01b815260040161129194939291906126e7565b6020604051808303816000875af19250505080156112cd57506040513d601f19601f820116820180604052508101906112ca9190612748565b60015b611351573d80600081146112fd576040519150601f19603f3d011682016040523d82523d6000602084013e611302565b606091505b50600081510361134957836040517f64a0ae920000000000000000000000000000000000000000000000000000000081526004016113409190611fc5565b60405180910390fd5b805160208201fd5b63150b7a0260e01b7bffffffffffffffffffffffffffffffffffffffffffffffffffffffff1916817bffffffffffffffffffffffffffffffffffffffffffffffffffffffff1916146113da57836040517f64a0ae920000000000000000000000000000000000000000000000000000000081526004016113d19190611fc5565b60405180910390fd5b505b5050505050565b606060405180602001604052806000815250905090565b606061140582610bd1565b5060006114106113e3565b90506000815111611430576040518060200160405280600081525061145b565b8061143a84611855565b60405160200161144b9291906125f7565b6040516020818303038152906040525b915050919050565b61147d828260405180602001604052806000815250611923565b5050565b806006600084815260200190815260200160002090816114a19190612921565b507ff8e1a15aba9398e019f0b49df1a4fde98ee17ae345cb5f6b5e2c27f5033e8ce7826040516114d191906121a8565b60405180910390a15050565b6000634906490660e01b7bffffffffffffffffffffffffffffffffffffffffffffffffffffffff1916827bffffffffffffffffffffffffffffffffffffffffffffffffffffffff19161480611537575061153682611947565b5b9050919050565b60006002600083815260200190815260200160002060009054906101000a900473ffffffffffffffffffffffffffffffffffffffff169050919050565b80806115b45750600073ffffffffffffffffffffffffffffffffffffffff168273ffffffffffffffffffffffffffffffffffffffff1614155b156116e85760006115c484610bd1565b9050600073ffffffffffffffffffffffffffffffffffffffff168373ffffffffffffffffffffffffffffffffffffffff161415801561162f57508273ffffffffffffffffffffffffffffffffffffffff168173ffffffffffffffffffffffffffffffffffffffff1614155b801561164257506116408184610ac3565b155b1561168457826040517fa9fbf51f00000000000000000000000000000000000000000000000000000000815260040161167b9190611fc5565b60405180910390fd5b81156116e657838573ffffffffffffffffffffffffffffffffffffffff168273ffffffffffffffffffffffffffffffffffffffff167f8c5be1e5ebec7d5bd14f71427d1e84f3dd0314c0f7b2291e5b200ac8c7c3b92560405160405180910390a45b505b836004600085815260200190815260200160002060006101000a81548173ffffffffffffffffffffffffffffffffffffffff021916908373ffffffffffffffffffffffffffffffffffffffff16021790555050505050565b61174b838383611a29565b6117ff57600073ffffffffffffffffffffffffffffffffffffffff168373ffffffffffffffffffffffffffffffffffffffff16036117c057806040517f7e2732890000000000000000000000000000000000000000000000000000000081526004016117b791906121a8565b60405180910390fd5b81816040517f177e802f0000000000000000000000000000000000000000000000000000000081526004016117f69291906129f3565b60405180910390fd5b505050565b61180e82826107c5565b6118515780826040517fe2517d3f000000000000000000000000000000000000000000000000000000008152600401611848929190612a1c565b60405180910390fd5b5050565b60606000600161186484611aea565b01905060008167ffffffffffffffff81111561188357611882612239565b5b6040519080825280601f01601f1916602001820160405280156118b55781602001600182028036833780820191505090505b509050600082602083010190505b600115611918578080600190039150507f3031323334353637383961626364656600000000000000000000000000000000600a86061a8153600a858161190c5761190b612a45565b5b049450600085036118c3575b819350505050919050565b61192d8383611c3d565b611942611938610c96565b6000858585611232565b505050565b60007f80ac58cd000000000000000000000000000000000000000000000000000000007bffffffffffffffffffffffffffffffffffffffffffffffffffffffff1916827bffffffffffffffffffffffffffffffffffffffffffffffffffffffff19161480611a1257507f5b5e139f000000000000000000000000000000000000000000000000000000007bffffffffffffffffffffffffffffffffffffffffffffffffffffffff1916827bffffffffffffffffffffffffffffffffffffffffffffffffffffffff1916145b80611a225750611a2182611d36565b5b9050919050565b60008073ffffffffffffffffffffffffffffffffffffffff168373ffffffffffffffffffffffffffffffffffffffff1614158015611ae157508273ffffffffffffffffffffffffffffffffffffffff168473ffffffffffffffffffffffffffffffffffffffff161480611aa25750611aa18484610ac3565b5b80611ae057508273ffffffffffffffffffffffffffffffffffffffff16611ac883610c59565b73ffffffffffffffffffffffffffffffffffffffff16145b5b90509392505050565b600080600090507a184f03e93ff9f4daa797ed6e38ed64bf6a1f0100000000000000008310611b48577a184f03e93ff9f4daa797ed6e38ed64bf6a1f0100000000000000008381611b3e57611b3d612a45565b5b0492506040810190505b6d04ee2d6d415b85acef81000000008310611b85576d04ee2d6d415b85acef81000000008381611b7b57611b7a612a45565b5b0492506020810190505b662386f26fc100008310611bb457662386f26fc100008381611baa57611ba9612a45565b5b0492506010810190505b6305f5e1008310611bdd576305f5e1008381611bd357611bd2612a45565b5b0492506008810190505b6127108310611c02576127108381611bf857611bf7612a45565b5b0492506004810190505b60648310611c255760648381611c1b57611c1a612a45565b5b0492506002810190505b600a8310611c34576001810190505b80915050919050565b600073ffffffffffffffffffffffffffffffffffffffff168273ffffffffffffffffffffffffffffffffffffffff1603611caf5760006040517f64a0ae92000000000000000000000000000000000000000000000000000000008152600401611ca69190611fc5565b60405180910390fd5b6000611cbd83836000610cb0565b9050600073ffffffffffffffffffffffffffffffffffffffff168173ffffffffffffffffffffffffffffffffffffffff1614611d315760006040517f73c6ac6e000000000000000000000000000000000000000000000000000000008152600401611d289190611fc5565b60405180910390fd5b505050565b60007f01ffc9a7000000000000000000000000000000000000000000000000000000007bffffffffffffffffffffffffffffffffffffffffffffffffffffffff1916827bffffffffffffffffffffffffffffffffffffffffffffffffffffffff1916149050919050565b6000604051905090565b600080fd5b600080fd5b60007fffffffff0000000000000000000000000000000000000000000000000000000082169050919050565b611de981611db4565b8114611df457600080fd5b50565b600081359050611e0681611de0565b92915050565b600060208284031215611e2257611e21611daa565b5b6000611e3084828501611df7565b91505092915050565b60008115159050919050565b611e4e81611e39565b82525050565b6000602082019050611e696000830184611e45565b92915050565b600081519050919050565b600082825260208201905092915050565b60005b83811015611ea9578082015181840152602081019050611e8e565b60008484015250505050565b6000601f19601f8301169050919050565b6000611ed182611e6f565b611edb8185611e7a565b9350611eeb818560208601611e8b565b611ef481611eb5565b840191505092915050565b60006020820190508181036000830152611f198184611ec6565b905092915050565b6000819050919050565b611f3481611f21565b8114611f3f57600080fd5b50565b600081359050611f5181611f2b565b92915050565b600060208284031215611f6d57611f6c611daa565b5b6000611f7b84828501611f42565b91505092915050565b600073ffffffffffffffffffffffffffffffffffffffff82169050919050565b6000611faf82611f84565b9050919050565b611fbf81611fa4565b82525050565b6000602082019050611fda6000830184611fb6565b92915050565b611fe981611fa4565b8114611ff457600080fd5b50565b60008135905061200681611fe0565b92915050565b6000806040838503121561202357612022611daa565b5b600061203185828601611ff7565b925050602061204285828601611f42565b9150509250929050565b60008060006060848603121561206557612064611daa565b5b600061207386828701611ff7565b935050602061208486828701611ff7565b925050604061209586828701611f42565b9150509250925092565b6000819050919050565b6120b28161209f565b81146120bd57600080fd5b50565b6000813590506120cf816120a9565b92915050565b6000602082840312156120eb576120ea611daa565b5b60006120f9848285016120c0565b91505092915050565b61210b8161209f565b82525050565b60006020820190506121266000830184612102565b92915050565b6000806040838503121561214357612142611daa565b5b6000612151858286016120c0565b925050602061216285828601611ff7565b9150509250929050565b60006020828403121561218257612181611daa565b5b600061219084828501611ff7565b91505092915050565b6121a281611f21565b82525050565b60006020820190506121bd6000830184612199565b92915050565b6121cc81611e39565b81146121d757600080fd5b50565b6000813590506121e9816121c3565b92915050565b6000806040838503121561220657612205611daa565b5b600061221485828601611ff7565b9250506020612225858286016121da565b9150509250929050565b600080fd5b600080fd5b7f4e487b7100000000000000000000000000000000000000000000000000000000600052604160045260246000fd5b61227182611eb5565b810181811067ffffffffffffffff821117156122905761228f612239565b5b80604052505050565b60006122a3611da0565b90506122af8282612268565b919050565b600067ffffffffffffffff8211156122cf576122ce612239565b5b6122d882611eb5565b9050602081019050919050565b82818337600083830152505050565b6000612307612302846122b4565b612299565b90508281526020810184848401111561232357612322612234565b5b61232e8482856122e5565b509392505050565b600082601f83011261234b5761234a61222f565b5b813561235b8482602086016122f4565b91505092915050565b6000806000806080858703121561237e5761237d611daa565b5b600061238c87828801611ff7565b945050602061239d87828801611ff7565b93505060406123ae87828801611f42565b925050606085013567ffffffffffffffff8111156123cf576123ce611daf565b5b6123db87828801612336565b91505092959194509250565b600067ffffffffffffffff82111561240257612401612239565b5b61240b82611eb5565b9050602081019050919050565b600061242b612426846123e7565b612299565b90508281526020810184848401111561244757612446612234565b5b6124528482856122e5565b509392505050565b600082601f83011261246f5761246e61222f565b5b813561247f848260208601612418565b91505092915050565b6000806040838503121561249f5761249e611daa565b5b60006124ad85828601611ff7565b925050602083013567ffffffffffffffff8111156124ce576124cd611daf565b5b6124da8582860161245a565b9150509250929050565b600080604083850312156124fb576124fa611daa565b5b600061250985828601611ff7565b925050602061251a85828601611ff7565b9150509250929050565b7f4e487b7100000000000000000000000000000000000000000000000000000000600052602260045260246000fd5b6000600282049050600182168061256b57607f821691505b60208210810361257e5761257d612524565b5b50919050565b60006060820190506125996000830186611fb6565b6125a66020830185612199565b6125b36040830184611fb6565b949350505050565b600081905092915050565b60006125d182611e6f565b6125db81856125bb565b93506125eb818560208601611e8b565b80840191505092915050565b600061260382856125c6565b915061260f82846125c6565b91508190509392505050565b7f4e487b7100000000000000000000000000000000000000000000000000000000600052601160045260246000fd5b600061265582611f21565b91507fffffffffffffffffffffffffffffffffffffffffffffffffffffffffffffffff82036126875761268661261b565b5b600182019050919050565b600081519050919050565b600082825260208201905092915050565b60006126b982612692565b6126c3818561269d565b93506126d3818560208601611e8b565b6126dc81611eb5565b840191505092915050565b60006080820190506126fc6000830187611fb6565b6127096020830186611fb6565b6127166040830185612199565b818103606083015261272881846126ae565b905095945050505050565b60008151905061274281611de0565b92915050565b60006020828403121561275e5761275d611daa565b5b600061276c84828501612733565b91505092915050565b60008190508160005260206000209050919050565b60006020601f8301049050919050565b600082821b905092915050565b6000600883026127d77fffffffffffffffffffffffffffffffffffffffffffffffffffffffffffffffff8261279a565b6127e1868361279a565b95508019841693508086168417925050509392505050565b6000819050919050565b600061281e61281961281484611f21565b6127f9565b611f21565b9050919050565b6000819050919050565b61283883612803565b61284c61284482612825565b8484546127a7565b825550505050565b600090565b612861612854565b61286c81848461282f565b505050565b5b8181101561289057612885600082612859565b600181019050612872565b5050565b601f8211156128d5576128a681612775565b6128af8461278a565b810160208510156128be578190505b6128d26128ca8561278a565b830182612871565b50505b505050565b600082821c905092915050565b60006128f8600019846008026128da565b1980831691505092915050565b600061291183836128e7565b9150826002028217905092915050565b61292a82611e6f565b67ffffffffffffffff81111561294357612942612239565b5b61294d8254612553565b612958828285612894565b600060209050601f83116001811461298b5760008415612979578287015190505b6129838582612905565b8655506129eb565b601f19841661299986612775565b60005b828110156129c15784890151825560018201915060208501945060208101905061299c565b868310156129de57848901516129da601f8916826128e7565b8355505b6001600288020188555050505b505050505050565b6000604082019050612a086000830185611fb6565b612a156020830184612199565b9392505050565b6000604082019050612a316000830185611fb6565b612a3e6020830184612102565b9392505050565b7f4e487b7100000000000000000000000000000000000000000000000000000000600052601260045260246000fdfea26469706673582212207ccfd742b345f7636f40aaf667e9127b58b8ddde8e60d641c8b5f74eb0bac7a364736f6c63430008140033",
  "linkReferences": {},
  "deployedLinkReferences": {}
}