{
  "_format": "hh-sol-artifact-1",
  "contractName": "BlueCarbonToken",
  "sourceName": "contracts/BlueCarbonToken.sol",
  "abi": [
    {
      "inputs": [],
      "stateMutability": "nonpayable",
      "type": "constructor"
    },
    {
      "inputs": [
        {
          "internalType": "address",
          "name": "sender",
          "type": "address"
        },
        {
          "internalType": "uint256",
          "name": "balance",
          "type": "uint256"
        },
        {
          "internalType": "uint256",
          "name": "needed",
          "type": "uint256"
        },
        {
          "internalType": "uint256",
          "name": "tokenId",
          "type": "uint256"
        }
      ],
      "name": "ERC1155InsufficientBalance",
      "type": "error"
    },
    {
      "inputs": [
        {
          "internalType": "address",
          "name": "approver",
          "type": "address"
        }
      ],
      "name": "ERC1155InvalidApprover",
      "type": "error"
    },
    {
      "inputs": [
        {
          "internalType": "uint256",
          "name": "idsLength",
          "type": "uint256"
        },
        {
          "internalType": "uint256",
          "name": "valuesLength",
          "type": "uint256"
        }
      ],
      "name": "ERC1155InvalidArrayLength",
      "type": "error"
    },
    {
      "inputs": [
        {
          "internalType": "address",
          "name": "operator",
          "type": "address"
        }
      ],
      "name": "ERC1155InvalidOperator",
      "type": "error"
    },
    {
      "inputs": [
        {
          "internalType": "address",
          "name": "receiver",
          "type": "address"
        }
      ],
      "name": "ERC1155InvalidReceiver",
      "type": "error"
    },
    {
      "inputs": [
        {
          "internalType": "address",
          "name": "sender",
          "type": "address"
        }
      ],
      "name": "ERC1155InvalidSender",
      "type": "error"
    },
    {
      "inputs": [
        {
          "internalType": "address",
          "name": "operator",
          "type": "address"
        },
        {
          "internalType": "address",
          "name": "owner",
          "type": "address"
        }
      ],
      "name": "ERC1155MissingApprovalForAll",
      "type": "error"
    },
    {
      "inputs": [
        {
          "internalType": "address",
          "name": "owner",
          "type": "address"
        }
      ],
      "name": "OwnableInvalidOwner",
      "type": "error"
    },
    {
      "inputs": [
        {
          "internalType": "address",
          "name": "account",
          "type": "address"
        }
      ],
      "name": "OwnableUnauthorizedAccount",
      "type": "error"
    },
    {
      "anonymous": false,
      "inputs": [
        {
          "indexed": true,
          "internalType": "address",
          "name": "account",
          "type": "address"
        },
        {
          "indexed": true,
          "internalType": "address",
          "name": "operator",
          "type": "address"
        },
        {
          "indexed": false,
          "internalType": "bool",
          "name": "approved",
          "type": "bool"
        }
      ],
      "name": "ApprovalForAll",
      "type": "event"
    },
    {
      "anonymous": false,
      "inputs": [
        {
          "indexed": true,
          "internalType": "address",
          "name": "previousOwner",
          "type": "address"
        },
        {
          "indexed": true,
          "internalType": "address",
          "name": "newOwner",
          "type": "address"
        }
      ],
      "name": "OwnershipTransferred",
      "type": "event"
    },
    {
      "anonymous": false,
      "inputs": [
        {
          "indexed": true,
          "internalType": "uint256",
          "name": "id",
          "type": "uint256"
        },
        {
          "indexed": false,
          "internalType": "uint256",
          "name": "amount",
          "type": "uint256"
        },
        {
          "indexed": true,
          "internalType": "uint256",
          "name": "projectId",
          "type": "uint256"
        }
      ],
      "name": "TokensMinted",
      "type": "event"
    },
    {
      "anonymous": false,
      "inputs": [
        {
          "indexed": true,
          "internalType": "address",
          "name": "user",
          "type": "address"
        },
        {
          "indexed": true,
          "internalType": "uint256",
          "name": "id",
          "type": "uint256"
        },
        {
          "indexed": false,
          "internalType": "uint256",
          "name": "amount",
          "type": "uint256"
        }
      ],
      "name": "TokensRetired",
      "type": "event"
    },
    {
      "anonymous": false,
      "inputs": [
        {
          "indexed": true,
          "internalType": "address",
          "name": "operator",
          "type": "address"
        },
        {
          "indexed": true,
          "internalType": "address",
          "name": "from",
          "type": "address"
        },
        {
          "indexed": true,
          "internalType": "address",
          "name": "to",
          "type": "address"
        },
        {
          "indexed": false,
          "internalType": "uint256[]",
          "name": "ids",
          "type": "uint256[]"
        },
        {
          "indexed": false,
          "internalType": "uint256[]",
          "name": "values",
          "type": "uint256[]"
        }
      ],
      "name": "TransferBatch",
      "type": "event"
    },
    {
      "anonymous": false,
      "inputs": [
        {
          "indexed": true,
          "internalType": "address",
          "name": "operator",
          "type": "address"
        },
        {
          "indexed": true,
          "internalType": "address",
          "name": "from",
          "type": "address"
        },
        {
          "indexed": true,
          "internalType": "address",
          "name": "to",
          "type": "address"
        },
        {
          "indexed": false,
          "internalType": "uint256",
          "name": "id",
          "type": "uint256"
        },
        {
          "indexed": false,
          "internalType": "uint256",
          "name": "value",
          "type": "uint256"
        }
      ],
      "name": "TransferSingle",
      "type": "event"
    },
    {
      "anonymous": false,
      "inputs": [
        {
          "indexed": false,
          "internalType": "string",
          "name": "value",
          "type": "string"
        },
        {
          "indexed": true,
          "internalType": "uint256",
          "name": "id",
          "type": "uint256"
        }
      ],
      "name": "URI",
      "type": "event"
    },
    {
      "inputs": [
        {
          "internalType": "address",
          "name": "account",
          "type": "address"
        },
        {
          "internalType": "uint256",
          "name": "id",
          "type": "uint256"
        }
      ],
      "name": "balanceOf",
      "outputs": [
        {
          "internalType": "uint256",
          "name": "",
          "type": "uint256"
        }
      ],
      "stateMutability": "view",
      "type": "function"
    },
    {
      "inputs": [
        {
          "internalType": "address[]",
          "name": "accounts",
          "type": "address[]"
        },
        {
          "internalType": "uint256[]",
          "name": "ids",
          "type": "uint256[]"
        }
      ],
      "name": "balanceOfBatch",
      "outputs": [
        {
          "internalType": "uint256[]",
          "name": "",
          "type": "uint256[]"
        }
      ],
      "stateMutability": "view",
      "type": "function"
    },
    {
      "inputs": [
        {
          "internalType": "address",
          "name": "account",
          "type": "address"
        },
        {
          "internalType": "uint256",
          "name": "id",
          "type": "uint256"
        },
        {
          "internalType": "uint256",
          "name": "value",
          "type": "uint256"
        }
      ],
      "name": "burn",
      "outputs": [],
      "stateMutability": "nonpayable",
      "type": "function"
    },
    {
      "inputs": [
        {
          "internalType": "address",
          "name": "account",
          "type": "address"
        },
        {
          "internalType": "uint256[]",
          "name": "ids",
          "type": "uint256[]"
        },
        {
          "internalType": "uint256[]",
          "name": "values",
          "type": "uint256[]"
        }
      ],
      "name": "burnBatch",
      "outputs": [],
      "stateMutability": "nonpayable",
      "type": "function"
    },
    {
      "inputs": [
        {
          "internalType": "address",
          "name": "account",
          "type": "address"
        },
        {
          "internalType": "address",
          "name": "operator",
          "type": "address"
        }
      ],
      "name": "isApprovedForAll",
      "outputs": [
        {
          "internalType": "bool",
          "name": "",
          "type": "bool"
        }
      ],
      "stateMutability": "view",
      "type": "function"
    },
    {
      "inputs": [
        {
          "internalType": "address",
          "name": "_to",
          "type": "address"
        },
        {
          "internalType": "uint256",
          "name": "_id",
          "type": "uint256"
        },
        {
          "internalType": "uint256",
          "name": "_amount",
          "type": "uint256"
        },
        {
          "internalType": "uint256",
          "name": "_projectId",
          "type": "uint256"
        },
        {
          "internalType": "bytes",
          "name": "_data",
          "type": "bytes"
        }
      ],
      "name": "mint",
      "outputs": [],
      "stateMutability": "nonpayable",
      "type": "function"
    },
    {
      "inputs": [],
      "name": "minter",
      "outputs": [
        {
          "internalType": "address",
          "name": "",
          "type": "address"
        }
      ],
      "stateMutability": "view",
      "type": "function"
    },
    {
      "inputs": [],
      "name": "owner",
      "outputs": [
        {
          "internalType": "address",
          "name": "",
          "type": "address"
        }
      ],
      "stateMutability": "view",
      "type": "function"
    },
    {
      "inputs": [],
      "name": "renounceOwnership",
      "outputs": [],
      "stateMutability": "nonpayable",
      "type": "function"
    },
    {
      "inputs": [
        {
          "internalType": "uint256",
          "name": "_id",
          "type": "uint256"
        },
        {
          "internalType": "uint256",
          "name": "_amount",
          "type": "uint256"
        }
      ],
      "name": "retire",
      "outputs": [],
      "stateMutability": "nonpayable",
      "type": "function"
    },
    {
      "inputs": [
        {
          "internalType": "address",
          "name": "from",
          "type": "address"
        },
        {
          "internalType": "address",
          "name": "to",
          "type": "address"
        },
        {
          "internalType": "uint256[]",
          "name": "ids",
          "type": "uint256[]"
        },
        {
          "internalType": "uint256[]",
          "name": "values",
          "type": "uint256[]"
        },
        {
          "internalType": "bytes",
          "name": "data",
          "type": "bytes"
        }
      ],
      "name": "safeBatchTransferFrom",
      "outputs": [],
      "stateMutability": "nonpayable",
      "type": "function"
    },
    {
      "inputs": [
        {
          "internalType": "address",
          "name": "from",
          "type": "address"
        },
        {
          "internalType": "address",
          "name": "to",
          "type": "address"
        },
        {
          "internalType": "uint256",
          "name": "id",
          "type": "uint256"
        },
        {
          "internalType": "uint256",
          "name": "value",
          "type": "uint256"
        },
        {
          "internalType": "bytes",
          "name": "data",
          "type": "bytes"
        }
      ],
      "name": "safeTransferFrom",
      "outputs": [],
      "stateMutability": "nonpayable",
      "type": "function"
    },
    {
      "inputs": [
        {
          "internalType": "address",
          "name": "operator",
          "type": "address"
        },
        {
          "internalType": "bool",
          "name": "approved",
          "type": "bool"
        }
      ],
      "name": "setApprovalForAll",
      "outputs": [],
      "stateMutability": "nonpayable",
      "type": "function"
    },
    {
      "inputs": [
        {
          "internalType": "address",
          "name": "_minter",
          "type": "address"
        }
      ],
      "name": "setMinter",
      "outputs": [],
      "stateMutability": "nonpayable",
      "type": "function"
    },
    {
      "inputs": [
        {
          "internalType": "bytes4",
          "name": "interfaceId",
          "type": "bytes4"
        }
      ],
      "name": "supportsInterface",
      "outputs": [
        {
          "internalType": "bool",
          "name": "",
          "type": "bool"
        }
      ],
      "stateMutability": "view",
      "type": "function"
    },
    {
      "inputs": [
        {
          "internalType": "uint256",
          "name": "",
          "type": "uint256"
        }
      ],
      "name": "tokenToProject",
      "outputs": [
        {
          "internalType": "uint256",
          "name": "",
          "type": "uint256"
        }
      ],
      "stateMutability": "view",
      "type": "function"
    },
    {
      "inputs": [
        {
          "internalType": "address",
          "name": "newOwner",
          "type": "address"
        }
      ],
      "name": "transferOwnership",
      "outputs": [],
      "stateMutability": "nonpayable",
      "type": "function"
    },
    {
      "inputs": [
        {
          "internalType": "uint256",
          "name": "",
          "type": "uint256"
        }
      ],
      "name": "uri",
      "outputs": [
        {
          "internalType": "string",
          "name": "",
          "type": "string"
        }
      ],
      "stateMutability": "view",
      "type": "function"
    }
  ],
  "bytecode": "0x60806040523480156200001157600080fd5b50336040518060400160405280601981526020017f68747470733a2f2f697066732e696f2f697066732f7b69647d000000000000008152506200005a816200012960201b60201c565b50600073ffffffffffffffffffffffffffffffffffffffff168173ffffffffffffffffffffffffffffffffffffffff1603620000d05760006040517f1e4fbdf7000000000000000000000000000000000000000000000000000000008152600401620000c7919062000249565b60405180910390fd5b620000e1816200013e60201b60201c565b5033600560006101000a81548173ffffffffffffffffffffffffffffffffffffffff021916908373ffffffffffffffffffffffffffffffffffffffff160217905550620005c7565b80600290816200013a9190620004e0565b5050565b6000600360009054906101000a900473ffffffffffffffffffffffffffffffffffffffff16905081600360006101000a81548173ffffffffffffffffffffffffffffffffffffffff021916908373ffffffffffffffffffffffffffffffffffffffff1602179055508173ffffffffffffffffffffffffffffffffffffffff168173ffffffffffffffffffffffffffffffffffffffff167f8be0079c531659141344cd1fd0a4f28419497f9722a3daafe3b4186f6b6457e060405160405180910390a35050565b600073ffffffffffffffffffffffffffffffffffffffff82169050919050565b6000620002318262000204565b9050919050565b620002438162000224565b82525050565b600060208201905062000260600083018462000238565b92915050565b600081519050919050565b7f4e487b7100000000000000000000000000000000000000000000000000000000600052604160045260246000fd5b7f4e487b7100000000000000000000000000000000000000000000000000000000600052602260045260246000fd5b60006002820490506001821680620002e857607f821691505b602082108103620002fe57620002fd620002a0565b5b50919050565b60008190508160005260206000209050919050565b60006020601f8301049050919050565b600082821b905092915050565b600060088302620003687fffffffffffffffffffffffffffffffffffffffffffffffffffffffffffffffff8262000329565b62000374868362000329565b95508019841693508086168417925050509392505050565b6000819050919050565b6000819050919050565b6000620003c1620003bb620003b5846200038c565b62000396565b6200038c565b9050919050565b6000819050919050565b620003dd83620003a0565b620003f5620003ec82620003c8565b84845462000336565b825550505050565b600090565b6200040c620003fd565b62000419818484620003d2565b505050565b5b8181101562000441576200043560008262000402565b6001810190506200041f565b5050565b601f82111562000490576200045a8162000304565b620004658462000319565b8101602085101562000475578190505b6200048d620004848562000319565b8301826200041e565b50505b505050565b600082821c905092915050565b6000620004b56000198460080262000495565b1980831691505092915050565b6000620004d08383620004a2565b9150826002028217905092915050565b620004eb8262000266565b67ffffffffffffffff81111562000507576200050662000271565b5b620005138254620002cf565b6200052082828562000445565b600060209050601f83116001811462000558576000841562000543578287015190505b6200054f8582620004c2565b865550620005bf565b601f198416620005688662000304565b60005b8281101562000592578489015182556001820191506020850194506020810190506200056b565b86831015620005b25784890151620005ae601f891682620004a2565b8355505b6001600288020188555050505b505050505050565b612a9580620005d76000396000f3fe608060405234801561001057600080fd5b50600436106101155760003560e01c80638da5cb5b116100a2578063e985e9c511610071578063e985e9c5146102dc578063f242432a1461030c578063f2fde38b14610328578063f5298aca14610344578063fca3b5aa1461036057610115565b80638da5cb5b14610256578063911d255214610274578063a22cb465146102a4578063b49c99b8146102c057610115565b8063293a7f2e116100e9578063293a7f2e146101c85780632eb2c2d6146101e45780634e1273f4146102005780636b20c45414610230578063715018a61461024c57610115565b8062fdd58e1461011a57806301ffc9a71461014a578063075461721461017a5780630e89341c14610198575b600080fd5b610134600480360381019061012f9190611c58565b61037c565b6040516101419190611ca7565b60405180910390f35b610164600480360381019061015f9190611d1a565b6103d6565b6040516101719190611d62565b60405180910390f35b6101826104b8565b60405161018f9190611d8c565b60405180910390f35b6101b260048036038101906101ad9190611da7565b6104de565b6040516101bf9190611e64565b60405180910390f35b6101e260048036038101906101dd9190611e86565b610572565b005b6101fe60048036038101906101f991906120c3565b6105d0565b005b61021a60048036038101906102159190612255565b610678565b604051610227919061238b565b60405180910390f35b61024a600480360381019061024591906123ad565b610787565b005b610254610833565b005b61025e610847565b60405161026b9190611d8c565b60405180910390f35b61028e60048036038101906102899190611da7565b610871565b60405161029b9190611ca7565b60405180910390f35b6102be60048036038101906102b99190612464565b610889565b005b6102da60048036038101906102d591906124a4565b61089f565b005b6102f660048036038101906102f1919061253b565b6109d0565b6040516103039190611d62565b60405180910390f35b6103266004803603810190610321919061257b565b610a64565b005b610342600480360381019061033d9190612612565b610b0c565b005b61035e6004803603810190610359919061263f565b610b92565b005b61037a60048036038101906103759190612612565b610c3e565b005b600080600083815260200190815260200160002060008473ffffffffffffffffffffffffffffffffffffffff1673ffffffffffffffffffffffffffffffffffffffff16815260200190815260200160002054905092915050565b60007fd9b67a26000000000000000000000000000000000000000000000000000000007bffffffffffffffffffffffffffffffffffffffffffffffffffffffff1916827bffffffffffffffffffffffffffffffffffffffffffffffffffffffff191614806104a157507f0e89341c000000000000000000000000000000000000000000000000000000007bffffffffffffffffffffffffffffffffffffffffffffffffffffffff1916827bffffffffffffffffffffffffffffffffffffffffffffffffffffffff1916145b806104b157506104b082610c8a565b5b9050919050565b600560009054906101000a900473ffffffffffffffffffffffffffffffffffffffff1681565b6060600280546104ed906126c1565b80601f0160208091040260200160405190810160405280929190818152602001828054610519906126c1565b80156105665780601f1061053b57610100808354040283529160200191610566565b820191906000526020600020905b81548152906001019060200180831161054957829003601f168201915b50505050509050919050565b61057d338383610b92565b813373ffffffffffffffffffffffffffffffffffffffff167f5f42de6df61702eb8d413e46d7ba2e5b1b5607dc4feaf27c01d9907cff186d9b836040516105c49190611ca7565b60405180910390a35050565b60006105da610cf4565b90508073ffffffffffffffffffffffffffffffffffffffff168673ffffffffffffffffffffffffffffffffffffffff161415801561061f575061061d86826109d0565b155b156106635780866040517fe237d92200000000000000000000000000000000000000000000000000000000815260040161065a9291906126f2565b60405180910390fd5b6106708686868686610cfc565b505050505050565b606081518351146106c457815183516040517f5b0599910000000000000000000000000000000000000000000000000000000081526004016106bb92919061271b565b60405180910390fd5b6000835167ffffffffffffffff8111156106e1576106e0611ecb565b5b60405190808252806020026020018201604052801561070f5781602001602082028036833780820191505090505b50905060005b845181101561077c5761074c6107348287610df490919063ffffffff16565b6107478387610e0890919063ffffffff16565b61037c565b82828151811061075f5761075e612744565b5b60200260200101818152505080610775906127a2565b9050610715565b508091505092915050565b61078f610cf4565b73ffffffffffffffffffffffffffffffffffffffff168373ffffffffffffffffffffffffffffffffffffffff16141580156107d857506107d6836107d1610cf4565b6109d0565b155b15610823576107e5610cf4565b836040517fe237d92200000000000000000000000000000000000000000000000000000000815260040161081a9291906126f2565b60405180910390fd5b61082e838383610e1c565b505050565b61083b610eb0565b6108456000610f37565b565b6000600360009054906101000a900473ffffffffffffffffffffffffffffffffffffffff16905090565b60046020528060005260406000206000915090505481565b61089b610894610cf4565b8383610ffd565b5050565b600560009054906101000a900473ffffffffffffffffffffffffffffffffffffffff1673ffffffffffffffffffffffffffffffffffffffff163373ffffffffffffffffffffffffffffffffffffffff16148061092d57506108fe610847565b73ffffffffffffffffffffffffffffffffffffffff163373ffffffffffffffffffffffffffffffffffffffff16145b61096c576040517f08c379a000000000000000000000000000000000000000000000000000000000815260040161096390612836565b60405180910390fd5b6109788585858461116d565b81600460008681526020019081526020016000208190555081847f5f7a46b551ace06b6360654e8a6ab7ee12a9a178d1bcf1c3496ceeb4a2e7344d856040516109c19190611ca7565b60405180910390a35050505050565b6000600160008473ffffffffffffffffffffffffffffffffffffffff1673ffffffffffffffffffffffffffffffffffffffff16815260200190815260200160002060008373ffffffffffffffffffffffffffffffffffffffff1673ffffffffffffffffffffffffffffffffffffffff16815260200190815260200160002060009054906101000a900460ff16905092915050565b6000610a6e610cf4565b90508073ffffffffffffffffffffffffffffffffffffffff168673ffffffffffffffffffffffffffffffffffffffff1614158015610ab35750610ab186826109d0565b155b15610af75780866040517fe237d922000000000000000000000000000000000000000000000000000000008152600401610aee9291906126f2565b60405180910390fd5b610b048686868686611206565b505050505050565b610b14610eb0565b600073ffffffffffffffffffffffffffffffffffffffff168173ffffffffffffffffffffffffffffffffffffffff1603610b865760006040517f1e4fbdf7000000000000000000000000000000000000000000000000000000008152600401610b7d9190611d8c565b60405180910390fd5b610b8f81610f37565b50565b610b9a610cf4565b73ffffffffffffffffffffffffffffffffffffffff168373ffffffffffffffffffffffffffffffffffffffff1614158015610be35750610be183610bdc610cf4565b6109d0565b155b15610c2e57610bf0610cf4565b836040517fe237d922000000000000000000000000000000000000000000000000000000008152600401610c259291906126f2565b60405180910390fd5b610c39838383611311565b505050565b610c46610eb0565b80600560006101000a81548173ffffffffffffffffffffffffffffffffffffffff021916908373ffffffffffffffffffffffffffffffffffffffff16021790555050565b60007f01ffc9a7000000000000000000000000000000000000000000000000000000007bffffffffffffffffffffffffffffffffffffffffffffffffffffffff1916827bffffffffffffffffffffffffffffffffffffffffffffffffffffffff1916149050919050565b600033905090565b600073ffffffffffffffffffffffffffffffffffffffff168473ffffffffffffffffffffffffffffffffffffffff1603610d6e5760006040517f57f447ce000000000000000000000000000000000000000000000000000000008152600401610d659190611d8c565b60405180910390fd5b600073ffffffffffffffffffffffffffffffffffffffff168573ffffffffffffffffffffffffffffffffffffffff1603610de05760006040517f01a83514000000000000000000000000000000000000000000000000000000008152600401610dd79190611d8c565b60405180910390fd5b610ded85858585856113b8565b5050505050565b600060208202602084010151905092915050565b600060208202602084010151905092915050565b600073ffffffffffffffffffffffffffffffffffffffff168373ffffffffffffffffffffffffffffffffffffffff1603610e8e5760006040517f01a83514000000000000000000000000000000000000000000000000000000008152600401610e859190611d8c565b60405180910390fd5b610eab8360008484604051806020016040528060008152506113b8565b505050565b610eb8610cf4565b73ffffffffffffffffffffffffffffffffffffffff16610ed6610847565b73ffffffffffffffffffffffffffffffffffffffff1614610f3557610ef9610cf4565b6040517f118cdaa7000000000000000000000000000000000000000000000000000000008152600401610f2c9190611d8c565b60405180910390fd5b565b6000600360009054906101000a900473ffffffffffffffffffffffffffffffffffffffff16905081600360006101000a81548173ffffffffffffffffffffffffffffffffffffffff021916908373ffffffffffffffffffffffffffffffffffffffff1602179055508173ffffffffffffffffffffffffffffffffffffffff168173ffffffffffffffffffffffffffffffffffffffff167f8be0079c531659141344cd1fd0a4f28419497f9722a3daafe3b4186f6b6457e060405160405180910390a35050565b600073ffffffffffffffffffffffffffffffffffffffff168273ffffffffffffffffffffffffffffffffffffffff160361106f5760006040517fced3e1000000000000000000000000000000000000000000000000000000000081526004016110669190611d8c565b60405180910390fd5b80600160008573ffffffffffffffffffffffffffffffffffffffff1673ffffffffffffffffffffffffffffffffffffffff16815260200190815260200160002060008473ffffffffffffffffffffffffffffffffffffffff1673ffffffffffffffffffffffffffffffffffffffff16815260200190815260200160002060006101000a81548160ff0219169083151502179055508173ffffffffffffffffffffffffffffffffffffffff168373ffffffffffffffffffffffffffffffffffffffff167f17307eab39ab6107e8899845ad3d59bd9653f200f220920489ca2b5937696c31836040516111609190611d62565b60405180910390a3505050565b600073ffffffffffffffffffffffffffffffffffffffff168473ffffffffffffffffffffffffffffffffffffffff16036111df5760006040517f57f447ce0000000000000000000000000000000000000000000000000000000081526004016111d69190611d8c565b60405180910390fd5b6000806111ec858561146a565b915091506111fe6000878484876113b8565b505050505050565b600073ffffffffffffffffffffffffffffffffffffffff168473ffffffffffffffffffffffffffffffffffffffff16036112785760006040517f57f447ce00000000000000000000000000000000000000000000000000000000815260040161126f9190611d8c565b60405180910390fd5b600073ffffffffffffffffffffffffffffffffffffffff168573ffffffffffffffffffffffffffffffffffffffff16036112ea5760006040517f01a835140000000000000000000000000000000000000000000000000000000081526004016112e19190611d8c565b60405180910390fd5b6000806112f7858561146a565b9150915061130887878484876113b8565b50505050505050565b600073ffffffffffffffffffffffffffffffffffffffff168373ffffffffffffffffffffffffffffffffffffffff16036113835760006040517f01a8351400000000000000000000000000000000000000000000000000000000815260040161137a9190611d8c565b60405180910390fd5b600080611390848461146a565b915091506113b18560008484604051806020016040528060008152506113b8565b5050505050565b6113c48585858561149a565b600073ffffffffffffffffffffffffffffffffffffffff168473ffffffffffffffffffffffffffffffffffffffff1614611463576000611402610cf4565b90506001845103611452576000611423600086610e0890919063ffffffff16565b9050600061143b600086610e0890919063ffffffff16565b905061144b838989858589611848565b5050611461565b6114608187878787876119fc565b5b505b5050505050565b60608060405191506001825283602083015260408201905060018152826020820152604081016040529250929050565b80518251146114e457815181516040517f5b0599910000000000000000000000000000000000000000000000000000000081526004016114db92919061271b565b60405180910390fd5b60006114ee610cf4565b905060005b83518110156117035760006115118286610e0890919063ffffffff16565b905060006115288386610e0890919063ffffffff16565b9050600073ffffffffffffffffffffffffffffffffffffffff168873ffffffffffffffffffffffffffffffffffffffff161461165557600080600084815260200190815260200160002060008a73ffffffffffffffffffffffffffffffffffffffff1673ffffffffffffffffffffffffffffffffffffffff168152602001908152602001600020549050818110156115fd57888183856040517f03dee4c50000000000000000000000000000000000000000000000000000000081526004016115f49493929190612856565b60405180910390fd5b81810360008085815260200190815260200160002060008b73ffffffffffffffffffffffffffffffffffffffff1673ffffffffffffffffffffffffffffffffffffffff16815260200190815260200160002081905550505b600073ffffffffffffffffffffffffffffffffffffffff168773ffffffffffffffffffffffffffffffffffffffff16146116f0578060008084815260200190815260200160002060008973ffffffffffffffffffffffffffffffffffffffff1673ffffffffffffffffffffffffffffffffffffffff16815260200190815260200160002060008282546116e8919061289b565b925050819055505b5050806116fc906127a2565b90506114f3565b5060018351036117c2576000611723600085610e0890919063ffffffff16565b9050600061173b600085610e0890919063ffffffff16565b90508573ffffffffffffffffffffffffffffffffffffffff168773ffffffffffffffffffffffffffffffffffffffff168473ffffffffffffffffffffffffffffffffffffffff167fc3d58168c5ae7397731d063d5bbf3d657854427343f4c083240f7aacaa2d0f6285856040516117b392919061271b565b60405180910390a45050611841565b8373ffffffffffffffffffffffffffffffffffffffff168573ffffffffffffffffffffffffffffffffffffffff168273ffffffffffffffffffffffffffffffffffffffff167f4a39dc06d4c0dbc64b70af90fd698a233a518aa5d07e595d983b8c0526c8f7fb86866040516118389291906128cf565b60405180910390a45b5050505050565b60008473ffffffffffffffffffffffffffffffffffffffff163b11156119f4578373ffffffffffffffffffffffffffffffffffffffff1663f23a6e6187878686866040518663ffffffff1660e01b81526004016118a995949392919061295b565b6020604051808303816000875af19250505080156118e557506040513d601f19601f820116820180604052508101906118e291906129ca565b60015b611969573d8060008114611915576040519150601f19603f3d011682016040523d82523d6000602084013e61191a565b606091505b50600081510361196157846040517f57f447ce0000000000000000000000000000000000000000000000000000000081526004016119589190611d8c565b60405180910390fd5b805160208201fd5b63f23a6e6160e01b7bffffffffffffffffffffffffffffffffffffffffffffffffffffffff1916817bffffffffffffffffffffffffffffffffffffffffffffffffffffffff1916146119f257846040517f57f447ce0000000000000000000000000000000000000000000000000000000081526004016119e99190611d8c565b60405180910390fd5b505b505050505050565b60008473ffffffffffffffffffffffffffffffffffffffff163b1115611ba8578373ffffffffffffffffffffffffffffffffffffffff1663bc197c8187878686866040518663ffffffff1660e01b8152600401611a5d9594939291906129f7565b6020604051808303816000875af1925050508015611a9957506040513d601f19601f82011682018060405250810190611a9691906129ca565b60015b611b1d573d8060008114611ac9576040519150601f19603f3d011682016040523d82523d6000602084013e611ace565b606091505b506000815103611b1557846040517f57f447ce000000000000000000000000000000000000000000000000000000008152600401611b0c9190611d8c565b60405180910390fd5b805160208201fd5b63bc197c8160e01b7bffffffffffffffffffffffffffffffffffffffffffffffffffffffff1916817bffffffffffffffffffffffffffffffffffffffffffffffffffffffff191614611ba657846040517f57f447ce000000000000000000000000000000000000000000000000000000008152600401611b9d9190611d8c565b60405180910390fd5b505b505050505050565b6000604051905090565b600080fd5b600080fd5b600073ffffffffffffffffffffffffffffffffffffffff82169050919050565b6000611bef82611bc4565b9050919050565b611bff81611be4565b8114611c0a57600080fd5b50565b600081359050611c1c81611bf6565b92915050565b6000819050919050565b611c3581611c22565b8114611c4057600080fd5b50565b600081359050611c5281611c2c565b92915050565b60008060408385031215611c6f57611c6e611bba565b5b6000611c7d85828601611c0d565b9250506020611c8e85828601611c43565b9150509250929050565b611ca181611c22565b82525050565b6000602082019050611cbc6000830184611c98565b92915050565b60007fffffffff0000000000000000000000000000000000000000000000000000000082169050919050565b611cf781611cc2565b8114611d0257600080fd5b50565b600081359050611d1481611cee565b92915050565b600060208284031215611d3057611d2f611bba565b5b6000611d3e84828501611d05565b91505092915050565b60008115159050919050565b611d5c81611d47565b82525050565b6000602082019050611d776000830184611d53565b92915050565b611d8681611be4565b82525050565b6000602082019050611da16000830184611d7d565b92915050565b600060208284031215611dbd57611dbc611bba565b5b6000611dcb84828501611c43565b91505092915050565b600081519050919050565b600082825260208201905092915050565b60005b83811015611e0e578082015181840152602081019050611df3565b60008484015250505050565b6000601f19601f8301169050919050565b6000611e3682611dd4565b611e408185611ddf565b9350611e50818560208601611df0565b611e5981611e1a565b840191505092915050565b60006020820190508181036000830152611e7e8184611e2b565b905092915050565b60008060408385031215611e9d57611e9c611bba565b5b6000611eab85828601611c43565b9250506020611ebc85828601611c43565b9150509250929050565b600080fd5b7f4e487b7100000000000000000000000000000000000000000000000000000000600052604160045260246000fd5b611f0382611e1a565b810181811067ffffffffffffffff82111715611f2257611f21611ecb565b5b80604052505050565b6000611f35611bb0565b9050611f418282611efa565b919050565b600067ffffffffffffffff821115611f6157611f60611ecb565b5b602082029050602081019050919050565b600080fd5b6000611f8a611f8584611f46565b611f2b565b90508083825260208201905060208402830185811115611fad57611fac611f72565b5b835b81811015611fd65780611fc28882611c43565b845260208401935050602081019050611faf565b5050509392505050565b600082601f830112611ff557611ff4611ec6565b5b8135612005848260208601611f77565b91505092915050565b600080fd5b600067ffffffffffffffff82111561202e5761202d611ecb565b5b61203782611e1a565b9050602081019050919050565b82818337600083830152505050565b600061206661206184612013565b611f2b565b9050828152602081018484840111156120825761208161200e565b5b61208d848285612044565b509392505050565b600082601f8301126120aa576120a9611ec6565b5b81356120ba848260208601612053565b91505092915050565b600080600080600060a086880312156120df576120de611bba565b5b60006120ed88828901611c0d565b95505060206120fe88828901611c0d565b945050604086013567ffffffffffffffff81111561211f5761211e611bbf565b5b61212b88828901611fe0565b935050606086013567ffffffffffffffff81111561214c5761214b611bbf565b5b61215888828901611fe0565b925050608086013567ffffffffffffffff81111561217957612178611bbf565b5b61218588828901612095565b9150509295509295909350565b600067ffffffffffffffff8211156121ad576121ac611ecb565b5b602082029050602081019050919050565b60006121d16121cc84612192565b611f2b565b905080838252602082019050602084028301858111156121f4576121f3611f72565b5b835b8181101561221d57806122098882611c0d565b8452602084019350506020810190506121f6565b5050509392505050565b600082601f83011261223c5761223b611ec6565b5b813561224c8482602086016121be565b91505092915050565b6000806040838503121561226c5761226b611bba565b5b600083013567ffffffffffffffff81111561228a57612289611bbf565b5b61229685828601612227565b925050602083013567ffffffffffffffff8111156122b7576122b6611bbf565b5b6122c385828601611fe0565b9150509250929050565b600081519050919050565b600082825260208201905092915050565b6000819050602082019050919050565b61230281611c22565b82525050565b600061231483836122f9565b60208301905092915050565b6000602082019050919050565b6000612338826122cd565b61234281856122d8565b935061234d836122e9565b8060005b8381101561237e5781516123658882612308565b975061237083612320565b925050600181019050612351565b5085935050505092915050565b600060208201905081810360008301526123a5818461232d565b905092915050565b6000806000606084860312156123c6576123c5611bba565b5b60006123d486828701611c0d565b935050602084013567ffffffffffffffff8111156123f5576123f4611bbf565b5b61240186828701611fe0565b925050604084013567ffffffffffffffff81111561242257612421611bbf565b5b61242e86828701611fe0565b9150509250925092565b61244181611d47565b811461244c57600080fd5b50565b60008135905061245e81612438565b92915050565b6000806040838503121561247b5761247a611bba565b5b600061248985828601611c0d565b925050602061249a8582860161244f565b9150509250929050565b600080600080600060a086880312156124c0576124bf611bba565b5b60006124ce88828901611c0d565b95505060206124df88828901611c43565b94505060406124f088828901611c43565b935050606061250188828901611c43565b925050608086013567ffffffffffffffff81111561252257612521611bbf565b5b61252e88828901612095565b9150509295509295909350565b6000806040838503121561255257612551611bba565b5b600061256085828601611c0d565b925050602061257185828601611c0d565b9150509250929050565b600080600080600060a0868803121561259757612596611bba565b5b60006125a588828901611c0d565b95505060206125b688828901611c0d565b94505060406125c788828901611c43565b93505060606125d888828901611c43565b925050608086013567ffffffffffffffff8111156125f9576125f8611bbf565b5b61260588828901612095565b9150509295509295909350565b60006020828403121561262857612627611bba565b5b600061263684828501611c0d565b91505092915050565b60008060006060848603121561265857612657611bba565b5b600061266686828701611c0d565b935050602061267786828701611c43565b925050604061268886828701611c43565b9150509250925092565b7f4e487b7100000000000000000000000000000000000000000000000000000000600052602260045260246000fd5b600060028204905060018216806126d957607f821691505b6020821081036126ec576126eb612692565b5b50919050565b60006040820190506127076000830185611d7d565b6127146020830184611d7d565b9392505050565b60006040820190506127306000830185611c98565b61273d6020830184611c98565b9392505050565b7f4e487b7100000000000000000000000000000000000000000000000000000000600052603260045260246000fd5b7f4e487b7100000000000000000000000000000000000000000000000000000000600052601160045260246000fd5b60006127ad82611c22565b91507fffffffffffffffffffffffffffffffffffffffffffffffffffffffffffffffff82036127df576127de612773565b5b600182019050919050565b7f4e6f74206d696e74657200000000000000000000000000000000000000000000600082015250565b6000612820600a83611ddf565b915061282b826127ea565b602082019050919050565b6000602082019050818103600083015261284f81612813565b9050919050565b600060808201905061286b6000830187611d7d565b6128786020830186611c98565b6128856040830185611c98565b6128926060830184611c98565b95945050505050565b60006128a682611c22565b91506128b183611c22565b92508282019050808211156128c9576128c8612773565b5b92915050565b600060408201905081810360008301526128e9818561232d565b905081810360208301526128fd818461232d565b90509392505050565b600081519050919050565b600082825260208201905092915050565b600061292d82612906565b6129378185612911565b9350612947818560208601611df0565b61295081611e1a565b840191505092915050565b600060a0820190506129706000830188611d7d565b61297d6020830187611d7d565b61298a6040830186611c98565b6129976060830185611c98565b81810360808301526129a98184612922565b90509695505050505050565b6000815190506129c481611cee565b92915050565b6000602082840312156129e0576129df611bba565b5b60006129ee848285016129b5565b91505092915050565b600060a082019050612a0c6000830188611d7d565b612a196020830187611d7d565b8181036040830152612a2b818661232d565b90508181036060830152612a3f818561232d565b90508181036080830152612a538184612922565b9050969550505050505056fea264697066735822122064e56e9074de699d9e00cf1359102705bc0dc8c497ee9f2bf3b59a2220e2866764736f6c63430008140033",
  "linkReferences": {},
  "deployedLinkReferences": {}
}