{
  "_format": "hh-sol-artifact-1",
  "contractName": "CarbonRegistry",
  "sourceName": "contracts/CarbonRegistry.sol",
  "abi": [
    {
      "inputs": [
        {
          "internalType": "address",
          "name": "_tokenAddress",
          "type": "address"
        },
        {
          "internalType": "address",
          "name": "_nftAddress",
          "type": "address"
        }
      ],
      "stateMutability": "nonpayable",
      "type": "constructor"
    },
    {
      "inputs": [
        {
          "internalType": "address",
          "name": "owner",
          "type": "address"
        }
      ],
      "name": "OwnableInvalidOwner",
      "type": "error"
    },
    {
      "inputs": [
        {
          "internalType": "address",
          "name": "account",
          "type": "address"
        }
      ],
      "name": "OwnableUnauthorizedAccount",
      "type": "error"
    },
    {
      "anonymous": false,
      "inputs": [
        {
          "indexed": true,
          "internalType": "address",
          "name": "previousOwner",
          "type": "address"
        },
        {
          "indexed": true,
          "internalType": "address",
          "name": "newOwner",
          "type": "address"
        }
      ],
      "name": "OwnershipTransferred",
      "type": "event"
    },
    {
      "anonymous": false,
      "inputs": [
        {
          "indexed": true,
          "internalType": "uint256",
          "name": "id",
          "type": "uint256"
        },
        {
          "indexed": false,
          "internalType": "string",
          "name": "name",
          "type": "string"
        },
        {
          "indexed": false,
          "internalType": "address",
          "name": "owner",
          "type": "address"
        }
      ],
      "name": "ProjectRegistered",
      "type": "event"
    },
    {
      "anonymous": false,
      "inputs": [
        {
          "indexed": true,
          "internalType": "uint256",
          "name": "id",
          "type": "uint256"
        },
        {
          "indexed": false,
          "internalType": "uint256",
          "name": "creditsMinted",
          "type": "uint256"
        }
      ],
      "name": "ProjectVerified",
      "type": "event"
    },
    {
      "inputs": [
        {
          "internalType": "uint256",
          "name": "_id",
          "type": "uint256"
        }
      ],
      "name": "getProject",
      "outputs": [
        {
          "components": [
            {
              "internalType": "uint256",
              "name": "id",
              "type": "uint256"
            },
            {
              "internalType": "string",
              "name": "name",
              "type": "string"
            },
            {
              "internalType": "string",
              "name": "location",
              "type": "string"
            },
            {
              "internalType": "uint256",
              "name": "carbonCredits",
              "type": "uint256"
            },
            {
              "internalType": "string",
              "name": "ipfsMetadata",
              "type": "string"
            },
            {
              "internalType": "bool",
              "name": "isVerified",
              "type": "bool"
            },
            {
              "internalType": "address",
              "name": "owner",
              "type": "address"
            }
          ],
          "internalType": "struct CarbonRegistry.Project",
          "name": "",
          "type": "tuple"
        }
      ],
      "stateMutability": "view",
      "type": "function"
    },
    {
      "inputs": [],
      "name": "nftContract",
      "outputs": [
        {
          "internalType": "contract CarbonNFT",
          "name": "",
          "type": "address"
        }
      ],
      "stateMutability": "view",
      "type": "function"
    },
    {
      "inputs": [],
      "name": "owner",
      "outputs": [
        {
          "internalType": "address",
          "name": "",
          "type": "address"
        }
      ],
      "stateMutability": "view",
      "type": "function"
    },
    {
      "inputs": [],
      "name": "projectCount",
      "outputs": [
        {
          "internalType": "uint256",
          "name": "",
          "type": "uint256"
        }
      ],
      "stateMutability": "view",
      "type": "function"
    },
    {
      "inputs": [
        {
          "internalType": "uint256",
          "name": "",
          "type": "uint256"
        }
      ],
      "name": "projects",
      "outputs": [
        {
          "internalType": "uint256",
          "name": "id",
          "type": "uint256"
        },
        {
          "internalType": "string",
          "name": "name",
          "type": "string"
        },
        {
          "internalType": "string",
          "name": "location",
          "type": "string"
        },
        {
          "internalType": "uint256",
          "name": "carbonCredits",
          "type": "uint256"
        },
        {
          "internalType": "string",
          "name": "ipfsMetadata",
          "type": "string"
        },
        {
          "internalType": "bool",
          "name": "isVerified",
          "type": "bool"
        },
        {
          "internalType": "address",
          "name": "owner",
          "type": "address"
        }
      ],
      "stateMutability": "view",
      "type": "function"
    },
    {
      "inputs": [
        {
          "internalType": "string",
          "name": "_name",
          "type": "string"
        },
        {
          "internalType": "string",
          "name": "_location",
          "type": "string"
        },
        {
          "internalType": "string",
          "name": "_ipfsMetadata",
          "type": "string"
        }
      ],
      "name": "registerProject",
      "outputs": [],
      "stateMutability": "nonpayable",
      "type": "function"
    },
    {
      "inputs": [],
      "name": "renounceOwnership",
      "outputs": [],
      "stateMutability": "nonpayable",
      "type": "function"
    },
    {
      "inputs": [],
      "name": "tokenContract",
      "outputs": [
        {
          "internalType": "contract BlueCarbonToken",
          "name": "",
          "type": "address"
        }
      ],
      "stateMutability": "view",
      "type": "function"
    },
    {
      "inputs": [
        {
          "internalType": "address",
          "name": "newOwner",
          "type": "address"
        }
      ],
      "name": "transferOwnership",
      "outputs": [],
      "stateMutability": "nonpayable",
      "type": "function"
    },
    {
      "inputs": [
        {
          "internalType": "uint256",
          "name": "_projectId",
          "type": "uint256"
        },
        {
          "internalType": "uint256",
          "name": "_creditAmount",
          "type": "uint256"
        }
      ],
      "name": "verifyProject",
      "outputs": [],
      "stateMutability": "nonpayable",
      "type": "function"
    }
  ],
  "bytecode": "0x60806040523480156200001157600080fd5b5060405162001bfe38038062001bfe833981810160405281019062000037919062000277565b33600073ffffffffffffffffffffffffffffffffffffffff168173ffffffffffffffffffffffffffffffffffffffff1603620000ad5760006040517f1e4fbdf7000000000000000000000000000000000000000000000000000000008152600401620000a49190620002cf565b60405180910390fd5b620000be816200014960201b60201c565b5081600360006101000a81548173ffffffffffffffffffffffffffffffffffffffff021916908373ffffffffffffffffffffffffffffffffffffffff16021790555080600460006101000a81548173ffffffffffffffffffffffffffffffffffffffff021916908373ffffffffffffffffffffffffffffffffffffffff1602179055505050620002ec565b60008060009054906101000a900473ffffffffffffffffffffffffffffffffffffffff169050816000806101000a81548173ffffffffffffffffffffffffffffffffffffffff021916908373ffffffffffffffffffffffffffffffffffffffff1602179055508173ffffffffffffffffffffffffffffffffffffffff168173ffffffffffffffffffffffffffffffffffffffff167f8be0079c531659141344cd1fd0a4f28419497f9722a3daafe3b4186f6b6457e060405160405180910390a35050565b600080fd5b600073ffffffffffffffffffffffffffffffffffffffff82169050919050565b60006200023f8262000212565b9050919050565b620002518162000232565b81146200025d57600080fd5b50565b600081519050620002718162000246565b92915050565b600080604083850312156200029157620002906200020d565b5b6000620002a18582860162000260565b9250506020620002b48582860162000260565b9150509250929050565b620002c98162000232565b82525050565b6000602082019050620002e66000830184620002be565b92915050565b61190280620002fc6000396000f3fe608060405234801561001057600080fd5b506004361061009e5760003560e01c8063d56d229d11610066578063d56d229d1461013d578063de63d7ca1461015b578063df9a6c2f14610177578063f0f3f2c814610193578063f2fde38b146101c35761009e565b8063107046bd146100a357806336fbad26146100d957806355a373d6146100f7578063715018a6146101155780638da5cb5b1461011f575b600080fd5b6100bd60048036038101906100b89190610d34565b6101df565b6040516100d09796959493929190610e5c565b60405180910390f35b6100e16103e6565b6040516100ee9190610ee0565b60405180910390f35b6100ff6103ec565b60405161010c9190610f5a565b60405180910390f35b61011d610412565b005b610127610426565b6040516101349190610f75565b60405180910390f35b61014561044f565b6040516101529190610fb1565b60405180910390f35b61017560048036038101906101709190610fcc565b610475565b005b610191600480360381019061018c9190611141565b6106d7565b005b6101ad60048036038101906101a89190610d34565b610854565b6040516101ba9190611309565b60405180910390f35b6101dd60048036038101906101d89190611357565b610abc565b005b6002602052806000526040600020600091509050806000015490806001018054610208906113b3565b80601f0160208091040260200160405190810160405280929190818152602001828054610234906113b3565b80156102815780601f1061025657610100808354040283529160200191610281565b820191906000526020600020905b81548152906001019060200180831161026457829003601f168201915b505050505090806002018054610296906113b3565b80601f01602080910402602001604051908101604052809291908181526020018280546102c2906113b3565b801561030f5780601f106102e45761010080835404028352916020019161030f565b820191906000526020600020905b8154815290600101906020018083116102f257829003601f168201915b50505050509080600301549080600401805461032a906113b3565b80601f0160208091040260200160405190810160405280929190818152602001828054610356906113b3565b80156103a35780601f10610378576101008083540402835291602001916103a3565b820191906000526020600020905b81548152906001019060200180831161038657829003601f168201915b5050505050908060050160009054906101000a900460ff16908060050160019054906101000a900473ffffffffffffffffffffffffffffffffffffffff16905087565b60015481565b600360009054906101000a900473ffffffffffffffffffffffffffffffffffffffff1681565b61041a610b42565b6104246000610bc9565b565b60008060009054906101000a900473ffffffffffffffffffffffffffffffffffffffff16905090565b600460009054906101000a900473ffffffffffffffffffffffffffffffffffffffff1681565b61047d610b42565b60006002600084815260200190815260200160002090508060050160009054906101000a900460ff16156104e6576040517f08c379a00000000000000000000000000000000000000000000000000000000081526004016104dd90611430565b60405180910390fd5b81816003018190555060018160050160006101000a81548160ff021916908315150217905550600360009054906101000a900473ffffffffffffffffffffffffffffffffffffffff1673ffffffffffffffffffffffffffffffffffffffff166340c10f198260050160019054906101000a900473ffffffffffffffffffffffffffffffffffffffff16670de0b6b3a764000085610583919061147f565b6040518363ffffffff1660e01b81526004016105a09291906114c1565b600060405180830381600087803b1580156105ba57600080fd5b505af11580156105ce573d6000803e3d6000fd5b50505050600460009054906101000a900473ffffffffffffffffffffffffffffffffffffffff1673ffffffffffffffffffffffffffffffffffffffff1663d204c45e8260050160019054906101000a900473ffffffffffffffffffffffffffffffffffffffff16836004016040518363ffffffff1660e01b8152600401610656929190611583565b6020604051808303816000875af1158015610675573d6000803e3d6000fd5b505050506040513d601f19601f8201168201806040525081019061069991906115c8565b50827f051deb1bc4d34dca3248a2b7a5c31d2e05a2c6f8bab99a6dbe121308e4d921ae836040516106ca9190610ee0565b60405180910390a2505050565b600160008154809291906106ea906115f5565b91905055506040518060e001604052806001548152602001848152602001838152602001600081526020018281526020016000151581526020013373ffffffffffffffffffffffffffffffffffffffff1681525060026000600154815260200190815260200160002060008201518160000155602082015181600101908161077291906117ca565b50604082015181600201908161078891906117ca565b506060820151816003015560808201518160040190816107a891906117ca565b5060a08201518160050160006101000a81548160ff02191690831515021790555060c08201518160050160016101000a81548173ffffffffffffffffffffffffffffffffffffffff021916908373ffffffffffffffffffffffffffffffffffffffff1602179055509050506001547fbe67d123666fdaa12bddfaf9f13056f83522df7149a1717d7ba91baf586cfcc8843360405161084792919061189c565b60405180910390a2505050565b61085c610c95565b600260008381526020019081526020016000206040518060e001604052908160008201548152602001600182018054610894906113b3565b80601f01602080910402602001604051908101604052809291908181526020018280546108c0906113b3565b801561090d5780601f106108e25761010080835404028352916020019161090d565b820191906000526020600020905b8154815290600101906020018083116108f057829003601f168201915b50505050508152602001600282018054610926906113b3565b80601f0160208091040260200160405190810160405280929190818152602001828054610952906113b3565b801561099f5780601f106109745761010080835404028352916020019161099f565b820191906000526020600020905b81548152906001019060200180831161098257829003601f168201915b50505050508152602001600382015481526020016004820180546109c2906113b3565b80601f01602080910402602001604051908101604052809291908181526020018280546109ee906113b3565b8015610a3b5780601f10610a1057610100808354040283529160200191610a3b565b820191906000526020600020905b815481529060010190602001808311610a1e57829003601f168201915b505050505081526020016005820160009054906101000a900460ff161515151581526020016005820160019054906101000a900473ffffffffffffffffffffffffffffffffffffffff1673ffffffffffffffffffffffffffffffffffffffff1673ffffffffffffffffffffffffffffffffffffffff16815250509050919050565b610ac4610b42565b600073ffffffffffffffffffffffffffffffffffffffff168173ffffffffffffffffffffffffffffffffffffffff1603610b365760006040517f1e4fbdf7000000000000000000000000000000000000000000000000000000008152600401610b2d9190610f75565b60405180910390fd5b610b3f81610bc9565b50565b610b4a610c8d565b73ffffffffffffffffffffffffffffffffffffffff16610b68610426565b73ffffffffffffffffffffffffffffffffffffffff1614610bc757610b8b610c8d565b6040517f118cdaa7000000000000000000000000000000000000000000000000000000008152600401610bbe9190610f75565b60405180910390fd5b565b60008060009054906101000a900473ffffffffffffffffffffffffffffffffffffffff169050816000806101000a81548173ffffffffffffffffffffffffffffffffffffffff021916908373ffffffffffffffffffffffffffffffffffffffff1602179055508173ffffffffffffffffffffffffffffffffffffffff168173ffffffffffffffffffffffffffffffffffffffff167f8be0079c531659141344cd1fd0a4f28419497f9722a3daafe3b4186f6b6457e060405160405180910390a35050565b600033905090565b6040518060e001604052806000815260200160608152602001606081526020016000815260200160608152602001600015158152602001600073ffffffffffffffffffffffffffffffffffffffff1681525090565b6000604051905090565b600080fd5b600080fd5b6000819050919050565b610d1181610cfe565b8114610d1c57600080fd5b50565b600081359050610d2e81610d08565b92915050565b600060208284031215610d4a57610d49610cf4565b5b6000610d5884828501610d1f565b91505092915050565b610d6a81610cfe565b82525050565b600081519050919050565b600082825260208201905092915050565b60005b83811015610daa578082015181840152602081019050610d8f565b60008484015250505050565b6000601f19601f8301169050919050565b6000610dd282610d70565b610ddc8185610d7b565b9350610dec818560208601610d8c565b610df581610db6565b840191505092915050565b60008115159050919050565b610e1581610e00565b82525050565b600073ffffffffffffffffffffffffffffffffffffffff82169050919050565b6000610e4682610e1b565b9050919050565b610e5681610e3b565b82525050565b600060e082019050610e71600083018a610d61565b8181036020830152610e838189610dc7565b90508181036040830152610e978188610dc7565b9050610ea66060830187610d61565b8181036080830152610eb88186610dc7565b9050610ec760a0830185610e0c565b610ed460c0830184610e4d565b98975050505050505050565b6000602082019050610ef56000830184610d61565b92915050565b6000819050919050565b6000610f20610f1b610f1684610e1b565b610efb565b610e1b565b9050919050565b6000610f3282610f05565b9050919050565b6000610f4482610f27565b9050919050565b610f5481610f39565b82525050565b6000602082019050610f6f6000830184610f4b565b92915050565b6000602082019050610f8a6000830184610e4d565b92915050565b6000610f9b82610f27565b9050919050565b610fab81610f90565b82525050565b6000602082019050610fc66000830184610fa2565b92915050565b60008060408385031215610fe357610fe2610cf4565b5b6000610ff185828601610d1f565b925050602061100285828601610d1f565b9150509250929050565b600080fd5b600080fd5b7f4e487b7100000000000000000000000000000000000000000000000000000000600052604160045260246000fd5b61104e82610db6565b810181811067ffffffffffffffff8211171561106d5761106c611016565b5b80604052505050565b6000611080610cea565b905061108c8282611045565b919050565b600067ffffffffffffffff8211156110ac576110ab611016565b5b6110b582610db6565b9050602081019050919050565b82818337600083830152505050565b60006110e46110df84611091565b611076565b905082815260208101848484011115611100576110ff611011565b5b61110b8482856110c2565b509392505050565b600082601f8301126111285761112761100c565b5b81356111388482602086016110d1565b91505092915050565b60008060006060848603121561115a57611159610cf4565b5b600084013567ffffffffffffffff81111561117857611177610cf9565b5b61118486828701611113565b935050602084013567ffffffffffffffff8111156111a5576111a4610cf9565b5b6111b186828701611113565b925050604084013567ffffffffffffffff8111156111d2576111d1610cf9565b5b6111de86828701611113565b9150509250925092565b6111f181610cfe565b82525050565b600082825260208201905092915050565b600061121382610d70565b61121d81856111f7565b935061122d818560208601610d8c565b61123681610db6565b840191505092915050565b61124a81610e00565b82525050565b61125981610e3b565b82525050565b600060e08301600083015161127760008601826111e8565b506020830151848203602086015261128f8282611208565b915050604083015184820360408601526112a98282611208565b91505060608301516112be60608601826111e8565b50608083015184820360808601526112d68282611208565b91505060a08301516112eb60a0860182611241565b5060c08301516112fe60c0860182611250565b508091505092915050565b60006020820190508181036000830152611323818461125f565b905092915050565b61133481610e3b565b811461133f57600080fd5b50565b6000813590506113518161132b565b92915050565b60006020828403121561136d5761136c610cf4565b5b600061137b84828501611342565b91505092915050565b7f4e487b7100000000000000000000000000000000000000000000000000000000600052602260045260246000fd5b600060028204905060018216806113cb57607f821691505b6020821081036113de576113dd611384565b5b50919050565b7f50726f6a65637420616c72656164792076657269666965640000000000000000600082015250565b600061141a601883610d7b565b9150611425826113e4565b602082019050919050565b600060208201905081810360008301526114498161140d565b9050919050565b7f4e487b7100000000000000000000000000000000000000000000000000000000600052601160045260246000fd5b600061148a82610cfe565b915061149583610cfe565b92508282026114a381610cfe565b915082820484148315176114ba576114b9611450565b5b5092915050565b60006040820190506114d66000830185610e4d565b6114e36020830184610d61565b9392505050565b60008190508160005260206000209050919050565b6000815461150c816113b3565b6115168186610d7b565b9450600182166000811461153157600181146115475761157a565b60ff19831686528115156020028601935061157a565b611550856114ea565b60005b8381101561157257815481890152600182019150602081019050611553565b808801955050505b50505092915050565b60006040820190506115986000830185610e4d565b81810360208301526115aa81846114ff565b90509392505050565b6000815190506115c281610d08565b92915050565b6000602082840312156115de576115dd610cf4565b5b60006115ec848285016115b3565b91505092915050565b600061160082610cfe565b91507fffffffffffffffffffffffffffffffffffffffffffffffffffffffffffffffff820361163257611631611450565b5b600182019050919050565b60006020601f8301049050919050565b600082821b905092915050565b60006008830261168a7fffffffffffffffffffffffffffffffffffffffffffffffffffffffffffffffff8261164d565b611694868361164d565b95508019841693508086168417925050509392505050565b60006116c76116c26116bd84610cfe565b610efb565b610cfe565b9050919050565b6000819050919050565b6116e1836116ac565b6116f56116ed826116ce565b84845461165a565b825550505050565b600090565b61170a6116fd565b6117158184846116d8565b505050565b5b818110156117395761172e600082611702565b60018101905061171b565b5050565b601f82111561177e5761174f816114ea565b6117588461163d565b81016020851015611767578190505b61177b6117738561163d565b83018261171a565b50505b505050565b600082821c905092915050565b60006117a160001984600802611783565b1980831691505092915050565b60006117ba8383611790565b9150826002028217905092915050565b6117d382610d70565b67ffffffffffffffff8111156117ec576117eb611016565b5b6117f682546113b3565b61180182828561173d565b600060209050601f8311600181146118345760008415611822578287015190505b61182c85826117ae565b865550611894565b601f198416611842866114ea565b60005b8281101561186a57848901518255600182019150602085019450602081019050611845565b868310156118875784890151611883601f891682611790565b8355505b6001600288020188555050505b505050505050565b600060408201905081810360008301526118b68185610dc7565b90506118c56020830184610e4d565b939250505056fea2646970667358221220e6c00ee0f89fc526aafdb669c196031be2137c5a85b3cfc785871d0613a62a2664736f6c63430008140033",
  "linkReferences": {},
  "deployedLinkReferences": {}
}