{
  "_format": "hh-sol-artifact-1",
  "contractName": "CarbonRegistry",
  "sourceName": "contracts/CarbonRegistry.sol",
  "abi": [
    {
      "inputs": [],
      "stateMutability": "nonpayable",
      "type": "constructor"
    },
    {
      "inputs": [
        {
          "internalType": "address",
          "name": "owner",
          "type": "address"
        }
      ],
      "name": "OwnableInvalidOwner",
      "type": "error"
    },
    {
      "inputs": [
        {
          "internalType": "address",
          "name": "account",
          "type": "address"
        }
      ],
      "name": "OwnableUnauthorizedAccount",
      "type": "error"
    },
    {
      "anonymous": false,
      "inputs": [
        {
          "indexed": true,
          "internalType": "address",
          "name": "previousOwner",
          "type": "address"
        },
        {
          "indexed": true,
          "internalType": "address",
          "name": "newOwner",
          "type": "address"
        }
      ],
      "name": "OwnershipTransferred",
      "type": "event"
    },
    {
      "anonymous": false,
      "inputs": [
        {
          "indexed": true,
          "internalType": "uint256",
          "name": "projectId",
          "type": "uint256"
        },
        {
          "indexed": true,
          "internalType": "address",
          "name": "owner",
          "type": "address"
        },
        {
          "indexed": false,
          "internalType": "string",
          "name": "geoHash",
          "type": "string"
        }
      ],
      "name": "ProjectRegistered",
      "type": "event"
    },
    {
      "anonymous": false,
      "inputs": [
        {
          "indexed": true,
          "internalType": "uint256",
          "name": "projectId",
          "type": "uint256"
        }
      ],
      "name": "ProjectVerified",
      "type": "event"
    },
    {
      "inputs": [],
      "name": "nextProjectId",
      "outputs": [
        {
          "internalType": "uint256",
          "name": "",
          "type": "uint256"
        }
      ],
      "stateMutability": "view",
      "type": "function"
    },
    {
      "inputs": [],
      "name": "owner",
      "outputs": [
        {
          "internalType": "address",
          "name": "",
          "type": "address"
        }
      ],
      "stateMutability": "view",
      "type": "function"
    },
    {
      "inputs": [
        {
          "internalType": "uint256",
          "name": "",
          "type": "uint256"
        }
      ],
      "name": "projects",
      "outputs": [
        {
          "internalType": "address",
          "name": "owner",
          "type": "address"
        },
        {
          "internalType": "string",
          "name": "geoHash",
          "type": "string"
        },
        {
          "internalType": "bool",
          "name": "isVerified",
          "type": "bool"
        }
      ],
      "stateMutability": "view",
      "type": "function"
    },
    {
      "inputs": [
        {
          "internalType": "address",
          "name": "_owner",
          "type": "address"
        },
        {
          "internalType": "string",
          "name": "_geoHash",
          "type": "string"
        }
      ],
      "name": "registerProject",
      "outputs": [
        {
          "internalType": "uint256",
          "name": "",
          "type": "uint256"
        }
      ],
      "stateMutability": "nonpayable",
      "type": "function"
    },
    {
      "inputs": [],
      "name": "renounceOwnership",
      "outputs": [],
      "stateMutability": "nonpayable",
      "type": "function"
    },
    {
      "inputs": [
        {
          "internalType": "address",
          "name": "newOwner",
          "type": "address"
        }
      ],
      "name": "transferOwnership",
      "outputs": [],
      "stateMutability": "nonpayable",
      "type": "function"
    },
    {
      "inputs": [
        {
          "internalType": "uint256",
          "name": "_projectId",
          "type": "uint256"
        }
      ],
      "name": "verifyProject",
      "outputs": [],
      "stateMutability": "nonpayable",
      "type": "function"
    }
  ],
  "bytecode": "0x6080604052600160025534801561001557600080fd5b5033600073ffffffffffffffffffffffffffffffffffffffff168173ffffffffffffffffffffffffffffffffffffffff16036100895760006040517f1e4fbdf700000000000000000000000000000000000000000000000000000000815260040161008091906101a3565b60405180910390fd5b6100988161009e60201b60201c565b506101be565b60008060009054906101000a900473ffffffffffffffffffffffffffffffffffffffff169050816000806101000a81548173ffffffffffffffffffffffffffffffffffffffff021916908373ffffffffffffffffffffffffffffffffffffffff1602179055508173ffffffffffffffffffffffffffffffffffffffff168173ffffffffffffffffffffffffffffffffffffffff167f8be0079c531659141344cd1fd0a4f28419497f9722a3daafe3b4186f6b6457e060405160405180910390a35050565b600073ffffffffffffffffffffffffffffffffffffffff82169050919050565b600061018d82610162565b9050919050565b61019d81610182565b82525050565b60006020820190506101b86000830184610194565b92915050565b610e96806101cd6000396000f3fe608060405234801561001057600080fd5b506004361061007d5760003560e01c8063dcbb93551161005b578063dcbb9355146100dc578063e935b7b11461010c578063ed1ca91a1461012a578063f2fde38b146101465761007d565b8063107046bd14610082578063715018a6146100b45780638da5cb5b146100be575b600080fd5b61009c600480360381019061009791906106f7565b610162565b6040516100ab93929190610810565b60405180910390f35b6100bc610241565b005b6100c6610255565b6040516100d3919061084e565b60405180910390f35b6100f660048036038101906100f191906109ca565b61027e565b6040516101039190610a35565b60405180910390f35b6101146103c3565b6040516101219190610a35565b60405180910390f35b610144600480360381019061013f91906106f7565b6103c9565b005b610160600480360381019061015b9190610a50565b6104d4565b005b60016020528060005260406000206000915090508060000160009054906101000a900473ffffffffffffffffffffffffffffffffffffffff16908060010180546101ab90610aac565b80601f01602080910402602001604051908101604052809291908181526020018280546101d790610aac565b80156102245780601f106101f957610100808354040283529160200191610224565b820191906000526020600020905b81548152906001019060200180831161020757829003601f168201915b5050505050908060020160009054906101000a900460ff16905083565b61024961055a565b61025360006105e1565b565b60008060009054906101000a900473ffffffffffffffffffffffffffffffffffffffff16905090565b600061028861055a565b60006002600081548092919061029d90610b0c565b91905055905060405180606001604052808573ffffffffffffffffffffffffffffffffffffffff168152602001848152602001600015158152506001600083815260200190815260200160002060008201518160000160006101000a81548173ffffffffffffffffffffffffffffffffffffffff021916908373ffffffffffffffffffffffffffffffffffffffff16021790555060208201518160010190816103469190610d00565b5060408201518160020160006101000a81548160ff0219169083151502179055509050508373ffffffffffffffffffffffffffffffffffffffff16817f1fb4423aed62bba3e66f7c81a4af273642c7e8c57d7b111ae2b1aca9887869ba856040516103b19190610dd2565b60405180910390a38091505092915050565b60025481565b6103d161055a565b600073ffffffffffffffffffffffffffffffffffffffff166001600083815260200190815260200160002060000160009054906101000a900473ffffffffffffffffffffffffffffffffffffffff1673ffffffffffffffffffffffffffffffffffffffff1603610476576040517f08c379a000000000000000000000000000000000000000000000000000000000815260040161046d90610e40565b60405180910390fd5b600180600083815260200190815260200160002060020160006101000a81548160ff021916908315150217905550807f2fe72be8f4566f35545876185d6cc546d49e5b96e94813ba058f82a4d4b8162360405160405180910390a250565b6104dc61055a565b600073ffffffffffffffffffffffffffffffffffffffff168173ffffffffffffffffffffffffffffffffffffffff160361054e5760006040517f1e4fbdf7000000000000000000000000000000000000000000000000000000008152600401610545919061084e565b60405180910390fd5b610557816105e1565b50565b6105626106a5565b73ffffffffffffffffffffffffffffffffffffffff16610580610255565b73ffffffffffffffffffffffffffffffffffffffff16146105df576105a36106a5565b6040517f118cdaa70000000000000000000000000000000000000000000000000000000081526004016105d6919061084e565b60405180910390fd5b565b60008060009054906101000a900473ffffffffffffffffffffffffffffffffffffffff169050816000806101000a81548173ffffffffffffffffffffffffffffffffffffffff021916908373ffffffffffffffffffffffffffffffffffffffff1602179055508173ffffffffffffffffffffffffffffffffffffffff168173ffffffffffffffffffffffffffffffffffffffff167f8be0079c531659141344cd1fd0a4f28419497f9722a3daafe3b4186f6b6457e060405160405180910390a35050565b600033905090565b6000604051905090565b600080fd5b600080fd5b6000819050919050565b6106d4816106c1565b81146106df57600080fd5b50565b6000813590506106f1816106cb565b92915050565b60006020828403121561070d5761070c6106b7565b5b600061071b848285016106e2565b91505092915050565b600073ffffffffffffffffffffffffffffffffffffffff82169050919050565b600061074f82610724565b9050919050565b61075f81610744565b82525050565b600081519050919050565b600082825260208201905092915050565b60005b8381101561079f578082015181840152602081019050610784565b60008484015250505050565b6000601f19601f8301169050919050565b60006107c782610765565b6107d18185610770565b93506107e1818560208601610781565b6107ea816107ab565b840191505092915050565b60008115159050919050565b61080a816107f5565b82525050565b60006060820190506108256000830186610756565b818103602083015261083781856107bc565b90506108466040830184610801565b949350505050565b60006020820190506108636000830184610756565b92915050565b61087281610744565b811461087d57600080fd5b50565b60008135905061088f81610869565b92915050565b600080fd5b600080fd5b7f4e487b7100000000000000000000000000000000000000000000000000000000600052604160045260246000fd5b6108d7826107ab565b810181811067ffffffffffffffff821117156108f6576108f561089f565b5b80604052505050565b60006109096106ad565b905061091582826108ce565b919050565b600067ffffffffffffffff8211156109355761093461089f565b5b61093e826107ab565b9050602081019050919050565b82818337600083830152505050565b600061096d6109688461091a565b6108ff565b9050828152602081018484840111156109895761098861089a565b5b61099484828561094b565b509392505050565b600082601f8301126109b1576109b0610895565b5b81356109c184826020860161095a565b91505092915050565b600080604083850312156109e1576109e06106b7565b5b60006109ef85828601610880565b925050602083013567ffffffffffffffff811115610a1057610a0f6106bc565b5b610a1c8582860161099c565b9150509250929050565b610a2f816106c1565b82525050565b6000602082019050610a4a6000830184610a26565b92915050565b600060208284031215610a6657610a656106b7565b5b6000610a7484828501610880565b91505092915050565b7f4e487b7100000000000000000000000000000000000000000000000000000000600052602260045260246000fd5b60006002820490506001821680610ac457607f821691505b602082108103610ad757610ad6610a7d565b5b50919050565b7f4e487b7100000000000000000000000000000000000000000000000000000000600052601160045260246000fd5b6000610b17826106c1565b91507fffffffffffffffffffffffffffffffffffffffffffffffffffffffffffffffff8203610b4957610b48610add565b5b600182019050919050565b60008190508160005260206000209050919050565b60006020601f8301049050919050565b600082821b905092915050565b600060088302610bb67fffffffffffffffffffffffffffffffffffffffffffffffffffffffffffffffff82610b79565b610bc08683610b79565b95508019841693508086168417925050509392505050565b6000819050919050565b6000610bfd610bf8610bf3846106c1565b610bd8565b6106c1565b9050919050565b6000819050919050565b610c1783610be2565b610c2b610c2382610c04565b848454610b86565b825550505050565b600090565b610c40610c33565b610c4b818484610c0e565b505050565b5b81811015610c6f57610c64600082610c38565b600181019050610c51565b5050565b601f821115610cb457610c8581610b54565b610c8e84610b69565b81016020851015610c9d578190505b610cb1610ca985610b69565b830182610c50565b50505b505050565b600082821c905092915050565b6000610cd760001984600802610cb9565b1980831691505092915050565b6000610cf08383610cc6565b9150826002028217905092915050565b610d0982610765565b67ffffffffffffffff811115610d2257610d2161089f565b5b610d2c8254610aac565b610d37828285610c73565b600060209050601f831160018114610d6a5760008415610d58578287015190505b610d628582610ce4565b865550610dca565b601f198416610d7886610b54565b60005b82811015610da057848901518255600182019150602085019450602081019050610d7b565b86831015610dbd5784890151610db9601f891682610cc6565b8355505b6001600288020188555050505b505050505050565b60006020820190508181036000830152610dec81846107bc565b905092915050565b7f50726f6a65637420646f6573206e6f7420657869737400000000000000000000600082015250565b6000610e2a601683610770565b9150610e3582610df4565b602082019050919050565b60006020820190508181036000830152610e5981610e1d565b905091905056fea264697066735822122016eb20e734894a377393a5a285d00ece6d3ff0d854b493372d473b884fa7374164736f6c63430008140033",
  "linkReferences": {},
  "deployedLinkReferences": {}
}